:020000040800F2
:1000000020150020150200086F260008772300083D
:100010006D26000879050008274800080000000048
:100020000000000000000000000000005D2F00083C
:100030007B050008000000002D2E00085F2F00083F
:100040002F0200082F0200082F0200082F020008CC
:100050002F0200082F0200087D0500082F0200086B
:100060002F0200082F0200082F0200082F020008AC
:100070002F0200082F0200082F0200082F0200089C
:100080002F0200082F0200082F0200082F0200088C
:10009000B14700082F0200082F0200082F020008B5
:1000A0002F020008DD2F00082F0200082F02000891
:1000B000E92F00082F0200082F0200082F02000875
:1000C0002F0200082F0200082F0200082F0200084C
:1000D0002F0200082F0200082F0200082F0200083C
:1000E0002F0200082F0200082F0200082F0200082C
:1000F0002F0200082F0200082F0200082F0200081C
:100100002F0200082F0200082F0200082F0200080B
:100110002F0200082F0200082F0200082F020008FB
:100120002F0200082F0200082F0200082F020008EB
:1001300000F002F800F05FF80AA090E8000C82449A
:100140008344AAF10107DA4501D100F054F8AFF277
:10015000090EBAE80F0013F0010F18BFFB1A43F0A5
:100160000103184780480000A04800000A444FF0EF
:10017000000C10F8013B13F0070408BF10F8014B06
:100180001D1108BF10F8015B641E05D010F8016B4B
:10019000641E01F8016BF9D113F0080F1EBF10F8AF
:1001A000014BAD1C0C1B09D16D1E58BF01F801CBD2
:1001B000FAD505E014F8016B01F8016B6D1EF9D555
:1001C0009142D6D37047000000230024002500266A
:1001D000103A28BF78C1FBD8520728BF30C148BFAA
:1001E0000B607047642900F07580002070471FB5D0
:1001F0001FBD10B510BD00F08DF91146FFF7F7FFD8
:1002000004F030FB00F0ABF903B4FFF7F2FF03BCDE
:1002100004F01AFB0948804709480047FEE7FEE75B
:10022000FEE7FEE7FEE7FEE7FEE7FEE7FEE7FEE7A6
:1002300004480549054A064B70470000D92F0008BD
:1002400031010008200F002020150020201100207F
:10025000201100200FB4044910B503AA029800F041
:100260002BF910BC5DF814FB0C0000202DE9F041C7
:100270000E460446002020622046E168884730B3DD
:10028000252805D0D4E901219047206A401CF2E7D7
:10029000E168204600278847050018D0A5F14100F5
:1002A000192802D820354FF40067324629462046E7
:1002B0002760FFF797FF40B1012804D0F61D26F014
:1002C00007060836D8E7361DD6E72846DAE7206A5B
:1002D000BDE8F0812DE9F04106460024106875293B
:1002E000314616A510D0AFF30080002802DA404254
:1002F00013A507E031688A0701D512A502E0490776
:1003000004D511A5012401E0AFF3008000210A22E9
:1003100006F1240709E0B0FBF2FCB0FBF2F302FBAC
:100320001C00303078541846491C0028F3D123466D
:100330002A463046BDE8F04100F064B800000000F5
:100340002D0000002B0000002000000010B5203A16
:10035000C0F00B80B1E81850203AA0E81850B1E87E
:100360001850A0E81850BFF4F5AF5FEA027C24BF34
:10037000B1E81850A0E8185044BF18C918C0BDE82B
:1003800010405FEA827C24BF51F8043B40F8043BF4
:1003900008BF7047D20728BF31F8023B48BF11F8A9
:1003A000012B28BF20F8023B48BF00F8012B704703
:1003B0004FF0000200B5134694469646203922BFFE
:1003C000A0E80C50A0E80C50B1F12001BFF4F7AF49
:1003D000090728BFA0E80C5048BF0CC05DF804EB2B
:1003E000890028BF40F8042B08BF704748BF20F899
:1003F000022B11F0804F18BF00F8012B7047704797
:10040000704770472DE9F0470D46994692460446DD
:1004100000F124080168880604D5E06921F0100184
:10042000216000E00120A84201DD471B00E0002719
:10043000A1697A1902EB0900081AA0612078C006A8
:1004400002D42046AFF30080002608E0D4E9012161
:100450001AF806009047206A401C761C20624E4520
:10046000F4DB2078C0060AD52046AFF3008006E012
:10047000D4E9012130209047206A401C2062381EB8
:10048000A7F10107F4DC07E0D4E9012118F8050021
:100490009047206A401C2062281EA5F10105F3DC6C
:1004A0002046AFF300802078000602D50220BDE888
:1004B000F0870120FBE70000074B70B50D467B4439
:1004C00000F011F80446284600F020F810B14FF073
:1004D000FF3070BD204670BD8B43000001694A1C8F
:1004E00002610878704700B58FB0CDE90131002175
:1004F000059105497944CDE9031011466846FFF797
:10050000B5FE0FB000BD0000E5FFFFFF007B00F06F
:1005100080007047754600F02BF8AE46050069462E
:10052000534620F00700854618B020B5FFF780FE3F
:10053000BDE820404FF000064FF000074FF00008E4
:100540004FF0000B21F00701AC46ACE8C009ACE865
:10055000C009ACE8C009ACE8C0098D46704710B5C9
:100560000446AFF300802046BDE81040FFF74CBEC4
:1005700000487047C00E0020FEE77047012000F0E1
:1005800027B872B6FEE7000070B5044600F032F9F5
:100590000546601C02D004480078044400F02AF9A3
:1005A000401BA042FAD370BD6000002010B50128A6
:1005B0000AD10121054800F013F9012804D1BDE852
:1005C0001040002001F038BF10BD000000080140BD
:1005D000044910B50A68024202D00860FFF7E6FF3E
:1005E00010BD0000140401402DE9F84FDFF8C89158
:1005F000002409F1040A0AF1040B23460F270BF12A
:10060000040ED1E00125A54006EA0502AA4276D1F2
:10061000DFF8A8C14E68A6EB0C0866452BD00DDCB0
:10062000032E34D005DC36B3012E19D0022E2FD183
:100630001BE0112E16D0122E2AD119E0B8F5881F12
:1006400019D006DCB8F5803F15D0B8F5801F1FD152
:1006500011E0B8F5001F0ED0B8F5041F18D10AE05C
:10066000CB6815E0CB681B1D12E0CB6808330FE0A8
:10067000CB680C330CE08B682BB1012B4FF00803D7
:1006800003D0456104E0042302E0056100E000239B
:10069000FF2A01D8064601E000F104064FEA84056E
:1006A00001D9A5F12005D6F8008007FA05FC28EA53
:1006B0000C0803FA05F548EA0508C6F800804D68FD
:1006C000ED0070D53E4DAE6946F00106AE61AD69F4
:1006D00024F0030605F0010500953A4D06EB050CE4
:1006E000DCF80850A607360F07FA06F825EA0805D1
:1006F000DFF8D480404503D14FF0000825E052E0F8
:10070000DFF8C880404502D14FF001081DE0DFF856
:10071000C080404502D14FF0020816E0DFF8B480F7
:10072000404502D14FF003080FE0DFF8AC804045B0
:1007300002D14FF0040808E0DFF8A080404502D164
:100740004FF0050801E04FF0060808FA06F848EAFD
:100750000508CCF808804D68D9F80060ED034D46D7
:1007600001D5164300E096432E604D68DAF800602C
:10077000AD03554601D5164300E096432E604D6803
:10078000DBF80060ED025D4601D5164300E09643BC
:100790002E604D68DEF80060AD02754601D5164347
:1007A00000E096432E60641C0A681646E2407FF41F
:1007B00029AFBDE8F88F00000004014000001110CF
:1007C000001002400000014000080140000C014000
:1007D000001001400014014000180140001C0140BD
:1007E0008068084000D0012070470AB1016170475D
:1007F0000904FBE7014880687047000060000020A2
:1008000070B5040025D094F83D00002520B984F887
:100810003C50204600F0B8F8242084F83D002068C1
:10082000016821F0010101602068016841F4004184
:1008300001602068016821F40041016000F076FF4A
:100840004D4A6168914201D84C4900E04C498842C8
:1008500001D2012070BD4B492368B0FBF1F15E6805
:1008600026F03F060E435E606368934206D94FF45C
:10087000967359434FF47A73B1FBF3F12368491C23
:100880001E6A26F03F06314319626168914210D812
:100890004900401EB0FBF1F2521CC2F30B02042AC5
:1008A00001D2042022E0B0FBF1F0401CC0F30B00A9
:1008B0001CE0A268F2B301EBC10303EB0116431E77
:1008C000B3FBF6F35B1C43F480431B0549D092B3A2
:1008D00001EBC10202EB0111401EB0FBF1F0401C24
:1008E000C0F30B0040F4804040F400402168CA6926
:1008F0004CF6FF739A431043C861D4E907100143D3
:100900002068026822F0C00211430160D4E90301AB
:1009100001432068826848F2FF339A4311438160A3
:10092000D4E9050108432168CA6822F0FF02104398
:10093000C86001E00EE016E02068016841F00101A6
:1009400001602564202084F83D00256384F83E5032
:10095000002070BD01EB4106431EB3FBF6F35B1CA8
:10096000B3E70120C2E701EB4101401EB0FBF1F00B
:10097000401CC0F30B00B7E7A086010080841E0076
:1009800000093D0040420F0010B586B000210091E3
:1009900001910291039100680F4988421AD10F4CCE
:1009A000A06940F00800A061A069694600F0080055
:1009B0000490C0200090122001900320039008486A
:1009C000FFF712FEE06940F40010E061E06900F416
:1009D0000010049006B010BD00540040001002400A
:1009E000000C014002488168027811448160704720
:1009F00060000020074810B5016841F01001016057
:100A0000032000F08FF80F2000F006F800F03EF809
:100A1000002010BD0020024000B5014687B0002232
:100A2000192000F05FF8192000F04EF81348816992
:100A300041F400618161806905A900F400600690BD
:100A4000684600F053FE00F081FE0D490D4AB0FBF0
:100A5000F1F10D48491E0260416040F2E732002189
:100A6000C0E90321816001F00BFA10B1012007B049
:100A700000BD054801F04EFAF9E700000010024001
:100A800040420F00002C0140780A00200C4808B5B5
:100A9000816941F001018161816901F001010091E9
:100AA000C16941F08051C161C06900F0805000907F
:100AB0000448416821F0E06141F08061416008BD77
:100AC0000010024000000140002809DB00F01F0276
:100AD000012191404009800000F1E020C0F80011A0
:100AE00070470000F0B40E4B1B680C46C3F30223A2
:100AF000C3F10705042D00D90425191D072901D2CA
:100B0000002300E0DB1E012606FA05F1491E214004
:100B100099409E40761E16403143F0BC03F084BEDF
:100B20000CED00E0064900F0070208684FF6FF03ED
:100B3000184040EA0220034A104308607047000052
:100B40000CED00E00000FA0510B50C0607D501F029
:100B5000070101EB810100EBC100283005E001EB4A
:100B6000810100EBC10000F5B47099B232B10122ED
:100B700002730181190C4181002010BD0022027313
:100B8000C180F9E7704701EB810200EBC202D0F8A7
:100B9000E802D26B02F077BD01EB810200EBC202EA
:100BA000D0F8E802D2F87C2102F0D0BD70B504463E
:100BB0000B0601F0070000EB800104EBC1014FF0D0
:100BC00001024FF0000503D581F82920283103E008
:100BD00081F8695101F5B471087094F8A8020128F0
:100BE00008D084F8A822206803F0E0F984F8A8521D
:100BF000002070BD022070BD70B5044601F00F00EA
:100C00006268904201D9012070BD0B0601F0070017
:100C100000EB800104EBC1014FF001024FF0000531
:100C200003D581F82920283103E081F8695101F5C5
:100C3000B4718D70087094F8A802012808D084F867
:100C4000A822206803F04FFA84F8A852002070BD53
:100C5000022070BD2DE9F05F04685FEA424C0B781A
:100C60008D69B4F850C04FF000064BF68F7948F20A
:100C7000800A48F68F7B48F2C00E4FF480672AD571
:100C80004FF0020808EBC308C44407EB4C07E45BD1
:100C9000C4F30904A54203D32D1B8D6101D00BE0E1
:100CA0008E61066836F8235005EA090585F400557B
:100CB00045EA0A0526F82350520609D50D7803683F
:100CC00033F8252002EA0B0242EA0E0223F825201F
:100CD00084B30A8929E04FF0060808EBC308C4442E
:100CE00007EB4C07E45BC4F30904A54203D32D1BB7
:100CF0008D6101D00BE08E61066836F8235005EA5D
:100D0000090585F4005545EA0A0526F823505206E0
:100D100009D40B78056835F8232002EA0B0242EA71
:100D20000E0225F823202CB14A8949690068234620
:100D300003F048FD2046BDE8F09F2DE9F05F054631
:100D400000680C465FEA426C16468B692278B0F860
:100D500050C048F68F774CF280094FF6FF7B4FF476
:100D6000004E4FF4806A4FF000017BD54FF002082F
:100D700008EBC208E0440AEB480C30F80C00C0F362
:100D80000900834211D91B1AA3610FD0730407D540
:100D90002E6836F822303B4043EA090326F8223019
:100DA00094F82420012A50D04EE1A161607810B15E
:100DB000012813D01AE02868B0F85030184400EB2E
:100DC0000210B0F8042422F4F842A0F80424B0F889
:100DD000042442F40042A0F8042407E02868B0F894
:100DE0005030184400EB0210A0F804146278286810
:100DF00012B1012A11D018E0B0F85010084421783F
:100E000000EB0110B0F80C1421F4F841A0F80C1418
:100E1000B0F80C1441F4004105E0B0F85020104443
:100E2000227800EB0210A0F80C1421782846FFF776
:100E3000AAFE7004B8D521782A6832F8210038401B
:100E400040EA090022F82100FEE062690244626182
:100E5000E2690244E2612369226A9A4203D3184696
:100E6000111A04E038E084F824100AB11046216217
:100E7000617811B1012923D02BE02968B1F8502005
:100E80001144227801EB021101F2044148B13E28DD
:100E90000FD84208C30700D0521C0BEA82220A80F6
:100EA00017E00A8822F4F8420A800A8842F40042D5
:100EB000F5E74209C30600D1521E4EEA8222EEE750
:100EC0002968B1F850201144227801EB0211A1F8F1
:100ED000040483B22289B3E04FF0060808EBC2088D
:100EE000E0440AEB480C30F80C00C0F309008342E0
:100EF00011D31B1AA3610FD0730407D42E6836F8E0
:100F000022303B4043EA090326F8223094F824209B
:100F1000012A50D098E0A161607810B1012813D067
:100F20001AE02868B0F85030184400EB0210B0F80E
:100F3000042422F4F842A0F80424B0F8042442F473
:100F40000042A0F8042407E02868B0F850301844A4
:100F500000EB0210A0F804146278286812B1012A8C
:100F600011D018E0B0F850100844217800EB0110BF
:100F7000B0F80C1421F4F841A0F80C14B0F80C14DB
:100F800041F4004105E0B0F850201044227800EB15
:100F90000210A0F80C1421782846FFF7F4FD700425
:100FA00052D42278296831F82200384040EA0900FA
:100FB00021F8220048E0626902446261E269024469
:100FC000E2612369226A9A4203D31846111A216208
:100FD00004E00AB11046216284F82410627829687E
:100FE00012B1012A22D029E0B1F850201144227810
:100FF00001EB021101F20C4148B13E280FD8420822
:10100000C30700D0521C0BEA82220A8016E00A882D
:1010100022F4F8420A800A8842F40042F5E74209C5
:10102000C30600D1521E4EEA8222EEE7B1F85020EC
:101030001144227801EB0211A1F80C04628983B2F9
:101040006169286803F0DCFB21782A6832F8210006
:1010500048F6BF73184080F0300048F28003184310
:1010600022F821000020BDE8F09F2DE9F041044660
:101070000F0601F0070000EB800104EBC1014FF007
:1010800001064FF0000503D581F82960283103E0FF
:1010900081F8695101F5B47108700A61CB704A7822
:1010A00002B1C881022B00D10D7194F8A802012869
:1010B00009D084F8A862206802F04AFE284684F825
:1010C000A852BDE8F0810220FBE770B50C4601F0A4
:1010D000070505EB850100EBC101C1E95F23002293
:1010E000C1F8842181F8692181F8685101F5B47152
:1010F0006207006803F04CF8002070BD70B504462C
:101100000D4601F007006168884201D9012070BDD9
:1011100029064FF000064FF0010207D500EB8001D1
:1011200004EBC10181F82920283107E005EB850196
:1011300004EBC10181F8696101F5B4718A7008702E
:1011400094F8A802012807D084F8A822206803F0A8
:1011500006F8680702D006E0022070BD04F52C7185
:10116000206802F0BEFF84F8A862002070BD70B550
:101170000C4601F0070505EB850100EBC101C1E953
:101180000F23012281F84C208B6400234B6481F8EB
:10119000292001F8285F6207006802F0F9FF0020AB
:1011A00070BD1FB50446006803F008FB000402D5BB
:1011B000204601F0B1FC206803F000FB40050CD58F
:1011C000206830F8441F21F480610180204600F03F
:1011D0001FF90021204600F036F9206803F0EEFAEE
:1011E000400405D5206830F8441F21F48041018077
:1011F000206803F0E3FA800405D5206830F8441F26
:1012000021F400510180206803F0D8FAC00414D5FD
:10121000206830F8401F21F004010180206830F878
:10122000401F21F008010180204600F004F92068E9
:1012300030F8441F21F480510180206803F0BEFA89
:1012400000053ED522680020694632F8203021F89A
:101250001030401CC0B20828F7D332F8400F40F0DD
:1012600001001080206830F8402F22F00102028037
:101270002068B0F844205205FBD530F8442F22F402
:10128000806202800020236831F8102023F820209B
:10129000401CC0B20828F6D3206830F8401F41F047
:1012A00008010180206830F8441F21F400610180AA
:1012B000206830F8401F41F004010180204600F012
:1012C000F7F8206803F07AFA800508D5206830F82E
:1012D000441F21F400710180204600F0B0F820681E
:1012E00003F06CFAC00505D5206830F8441F21F4DE
:1012F000807101801FBD00002DE9F04186B004001F
:1013000004D094F8A902002520B108E0012006B01D
:10131000BDE8F08184F8A852204600F05BF8032075
:1013200084F8A902206802F0D5FE04F1100114220D
:1013300088466846FFF70AF894E80F0002F034FE8A
:101340000226D0BB0021206803F052FA00200127BA
:101350000FE000BF00EB800104EBC10181F82970B0
:1013600001F8280FC881CD700D614D61401CC0B2DD
:101370008D6161688142EDD8002011E000EB8001B1
:1013800004EBC10181F8695181F8680181F86B5162
:10139000C1F87851C1F87C51401CC0B2C1F88051ED
:1013A00061688142EAD8142241466846FEF7CEFFC2
:1013B00094E80F0002F085FE10B184F8A962A5E759
:1013C00084F8245084F8A972206802F078FE002086
:1013D0009DE7000008B500680B49884212D10B4810
:1013E000C16941F40001C161C069002200F400003C
:1013F000009011461420FFF775FBBDE8084014204B
:10140000FFF762BB08BD0000005C00400010024016
:1014100070B5044680680125022801D0FFF7B1F8B5
:101420002946D4F8E80202F06AFAD4F8E802BDE8E6
:10143000704002F026BAD0F8E80202F04ABAD0F8BA
:10144000E80202F050BA10B5044690F8A80201284C
:101450000BD0012084F8A80284F82410206803F03F
:10146000C9F9002084F8A80210BD022010BDD0F8F0
:10147000E82200F52C71104602F04DBA10B5044672
:1014800090F8A802012810D0012084F8A802206852
:1014900003F084F901212046FFF774FB206802F075
:1014A0000CFE002084F8A80210BD022010BD000030
:1014B00010B50446D0F8E80202F06CFAA0690028E2
:1014C00004D00348016841F00601016010BD00002E
:1014D00010ED00E02DE9F84305460078354CC007D3
:1014E00054D0E0690026C00008D4E06940F0805084
:1014F000E061E069012600F0805000902E4801680C
:10150000C90512D40168804641F480710160FFF77B
:1015100071F9074605E000BFFFF76CF9C01B6428AE
:1015200023D8D8F80000C005F6D5206A10F4407022
:1015300021D0A98801F4407181421CD0206A1F4942
:10154000012220F440700A6000220A602062C00775
:1015500011D0FFF74FF9074641F2883808E000BF85
:10156000FFF748F9C11B414502D90320BDE8F883C4
:10157000206A8007F4D5206A696820F44070084327
:1015800020621EB1E06920F08050E0612878800779
:1015900005D56068A96820F4404008436060287859
:1015A000C00605D56068696920F480000843606062
:1015B0000020DBE70010024000700040400442427F
:1015C0002DE9F0470F46050061D0434E306800F02A
:1015D0000700B84209D2306820F007003843306075
:1015E000306800F00700B84251D128683B4C8107B1
:1015F00012D5400703D5606840F4E0606060287849
:10160000000703D5606840F4605060606068A968B6
:1016100020F0F000084360602878C00728D0686890
:10162000012810D02168022810D0890700292EDA5D
:10163000616821F0030101436160FFF7DBF8804638
:1016400041F288390DE021688903EFE78901EDE770
:10165000FFF7D0F8A0EB0801494502D90320BDE807
:10166000F0876068696800F00C00B0EB810FEFD183
:10167000306800F00700B8420BD9306820F007004E
:1016800038433060306800F00700B84201D00120D4
:10169000E5E72878400705D56068E96820F4E06050
:1016A000084360602878000706D56068296920F43F
:1016B000605040EAC100606000F058F86168084A74
:1016C000C1F30311515CC840064908600648006830
:1016D000FFF7A2F90020C2E70020024000100240FC
:1016E000CA4900086C000020640000200F2202603C
:1016F0000C4A536803F003034360536803F0F0039C
:101700008360536803F4E063C36052684FF4E0639E
:1017100003EAD20202610448006800F00700086092
:1017200070470000001002400020024004480549B4
:1017300000684968044AC1F30221515CC8407047FF
:101740006C00002000100240DA49000804480549F6
:1017500000684968044AC1F3C221515CC84070471F
:101760006C00002000100240DA49000812A185B088
:101770000FC98DE80F0014A0144A00680490516846
:10178000134801F00C03042B10D0082B0ED1C1F329
:101790008343C9031DF803000AD5516804AAC1F3A5
:1017A0004041515C0A4A5043B0FBF1F005B070472C
:1017B00008494843FAE70000020304050607080940
:1017C0000A0B0C0D0E0F1010010200000010024059
:1017D00000127A0000093D002DE9F84F040070D096
:1017E0002078C04DC00749D06868C0F38100012847
:1017F00007D06868C0F38100022809D16868C00377
:1018000006D52868800339D560680028E7D035E020
:101810006068B0F5803F0BD010B1B0F5A02F11D0AB
:10182000286820F480302860286820F4802002E0B6
:10183000286840F480302860606890B1FEF7DAFFD5
:1018400006460AE0286840F480202860F0E700BFE0
:10185000FEF7D0FF801B642873D828688003F7D573
:101860000CE0FEF7C7FF064605E000BFFEF7C2FF2B
:10187000801B6428F0D828688003F7D420789A4E1B
:1018800080074FF001094FF0000839D5686810F063
:101890000C0F07D06868C0F38100022809D168687E
:1018A000C00306D42868800714D52069012808D110
:1018B00010E02069B0B1C6F80090FEF79BFF074624
:1018C00005E00AE1FEF796FFC01B0228C4D828688D
:1018D0008007F7D52868616920F0F80040EAC10068
:1018E00028600DE0C6F80080FEF784FF074604E09C
:1018F000FEF780FFC01B022823D828688007F7D492
:10190000207800072CD57948A169D9B1C0F800909A
:10191000FEF770FF074604E0FEF76CFFC01B0228CD
:101920000FD8686A8007F7D571484FF4FA510068FC
:10193000B0FBF1F0009000BF0098411E0091FAD278
:101940000EE080E0C0F80080FEF754FF074604E098
:10195000FEF750FFC01B022875D8686A8007F7D4CD
:101960002078400760D5E8690027C00008D4E869FE
:1019700040F08050E861E869012700F08050009055
:101980005C480168C90513D40168834641F480713D
:101990000160FEF72FFF824606E000BFFEF72AFF38
:1019A000A0EB0A0064284ED8DBF80000C005F5D58E
:1019B000E06801280AD008B1052813D0286A20F071
:1019C00001002862286A20F0040002E0286A40F042
:1019D00001002862E06841F2883B98B1FEF70AFFF7
:1019E00082460BE0286A40F004002862EEE700BF60
:1019F000FEF700FFA0EB0A0159455AD8286A800774
:101A0000F6D50CE0FEF7F6FE824605E0FEF7F2FEA4
:101A1000A0EB0A0159454CD8286A8007F6D41FB1BB
:101A2000E86920F08050E861E06988B36968C1F333
:101A30008101022944D00228C6F8608004D0FEF754
:101A4000D9FE044638E034E0FEF7D4FE074604E051
:101A5000FEF7D0FEC01B02282BD828688001F7D4DF
:101A6000206AB0F5803F05D16868A16820F4003095
:101A700008436860D4E908010843696821F47411D7
:101A800008436860C6F86090FEF7B4FE044606E0BE
:101A900025E000BFFEF7AEFE001B022809D828682B
:101AA0008001F7D51BE000BFFEF7A4FE001B022853
:101AB00002D90320BDE8F88F28688001F4D40EE035
:101AC0000128F7D06868226A00F48031914204D17D
:101AD000616A00F47010884201D00120EAE700201A
:101AE000E8E7000000100240000042428004424249
:101AF0006C0000200070004070B5040009D0606ADE
:101B0000002540B125616561A56294F8510040B19E
:101B10000CE0012070BD6068B0F5827FF4D0E56113
:101B2000F2E784F85050204600F040F8022084F894
:101B300051002068016821F040010160A0882189DE
:101B400000F4827001F404410843A18901F40061AA
:101B50000843217C01F002010843217D01F00101CD
:101B60000843218B01F400710843217F01F0380103
:101B7000084394F8201001F080010843218D01F4FE
:101B80000051084321680860A069042101EA10405F
:101B9000216848602068C16921F40061C161656500
:101BA000012084F85100002070BD000030B585B0E0
:101BB000002400940194029403940068144988421C
:101BC00023D11448816941F480518161816901F414
:101BD00080510491816941F00401816180690E4D59
:101BE00000F004000490A020009002200190032047
:101BF000039069462846FEF7F7FC4020CDE9000433
:101C0000694628460294FEF7EFFC05B030BD00009F
:101C10000030014000100240000801402DE9F84F5B
:101C2000044690F8500000270A9E1D4692468B46B7
:101C30004FF0010901280ED0012084F85000FEF772
:101C4000D9FD804694F85100616801280CD0B1F5A7
:101C5000827F07D102E00220BDE8F88FA16809B9B0
:101C6000042801D00227C2E0BBF1000F27D0BAF14F
:101C7000000F24D01DB394F85100042802D0052091
:101C800084F8510000206065C4F838A0E587A58776
:101C9000C4F830B0E586A5862064606420680168D9
:101CA000490603D4016841F040010160E068B0F5E5
:101CB000006F606805D0E8B3012D46D07FE00127B2
:101CC00095E008B1012D39D1206B21680088C860EA
:101CD000206B801C2063E08E401EE0862EE0206892
:101CE000816889070FD5E18E69B1B9F1010F0AD179
:101CF000216B0988C160206B801C2063E08E401E30
:101D0000E0864FF0000920688168C9070CD0E18F98
:101D100051B1C068A16B0880A06B801CA063E08FEC
:101D2000401EE0874FF00109FEF764FDA0EB0800BC
:101D3000B04200E009E001D3701C50D1E08E0028D1
:101D4000CDD1E08F0028CAD13FE0206B2168007818
:101D50000873206B401C2063E08E401EE0862EE05E
:101D60002068816889070FD5E18E69B1B9F1010F4B
:101D70000AD1216B09780173206B401C2063E08E2F
:101D8000401EE0864FF0000920688168C9070CD02A
:101D9000E18F51B1C068A16B0870A06B401CA063BB
:101DA000E08F401EE0874FF00109FEF723FDA0EB16
:101DB0000800B04202D3701C01D010E07EB1E08E6A
:101DC0000028CDD1E08F0028CAD1424631462046B6
:101DD00001F048F828B101272020606507E00327BB
:101DE00005E0A06818B92068C168806800900120EB
:101DF00084F85100002084F8500038462CE77047E2
:101E00007047000070B590F83C20012A2CD00124C6
:101E100080F83C40022280F83D2003685A689D68A3
:101E200022F070060A6832435A60104B02689A42E8
:101E30000ED00F4B9A420BD0B2F1804F08D00D4B11
:101E40009A4205D00C4B9A4202D00C4B9A4204D1D4
:101E5000496825F080031943916080F83D400021D6
:101E600080F83C10084670BD022070BD002C014077
:101E7000003401400004004000080040000C004015
:101E800010B5040003D094F83D0010B107E0012024
:101E900010BD002084F83C00204600F01FF802200E
:101EA00084F83D00211D206801F0A4F8012084F889
:101EB000460084F83E0084F83F0084F8400084F82F
:101EC000410084F8420084F8430084F8440084F818
:101ED000450084F83D00002010BD000008B50068F2
:101EE000B0F1804F12D10A48C16941F00101C161CE
:101EF000C069002200F0010000900A211C20FEF7BA
:101F0000F1FDBDE808401C20FEF7DEBD08BD000065
:101F10000010024090F83D10012901D001207047C7
:101F2000022180F83D100168CA6842F00102CA60CF
:101F300000680E4988420ED00D4988420BD0B0F19E
:101F4000804F08D00B49884205D00B49884202D007
:101F50000A49884204D1816801F00701062903D0AB
:101F6000016841F00101016000207047002C014030
:101F7000003401400004004000080040000C004014
:101F800070B5044690F83C00012817D0012584F86C
:101F90003C50022084F83D002068826822F07702DD
:101FA00022F47F4282600868502830D00DDC20285F
:101FB0004DD005DC98B310283BD148E0022070BD1D
:101FC000302844D0402834D139E0602828D0702807
:101FD00006D0B0F5805F2CD0B0F5005F29D10AE0C3
:101FE000CB68D1E90121206801F04AF820688168B6
:101FF00041F0770109E0CB68D1E90121206801F0C7
:102000003FF82068816841F48041816011E0CA682E
:102010004968206801F046F85021206807E016E082
:10202000CA684968206801F04EF86021206801F014
:1020300031F884F83D50002084F83C0070BDCA6837
:102040004968206801F02EF840212068EFE72268F7
:1020500001461046EBE7704770B504460068016919
:102060004FF00005C943890715D4C168C9438907E2
:1020700011D4E91E01610120207720688069800762
:10208000204602D0FFF7E7FF04E000F098F8204672
:1020900000F096F8257720680169C943490717D4ED
:1020A000C168C943490713D46FF0040101610220DC
:1020B00020772068806910F4407F204602D0FFF727
:1020C000CAFF04E000F07BF8204600F079F825779D
:1020D00020680169C943090716D4C168C9430907C3
:1020E00012D46FF008010161042020772068C069D4
:1020F0008007204602D0FFF7AEFF04E000F05FF853
:10210000204600F05DF8257720680169C943C906BB
:1021100017D4C168C943C90613D46FF01001016117
:10212000082020772068C06910F4407F204602D044
:10213000FFF791FF04E000F042F8204600F040F87D
:10214000257720680169C943C90708D1C168C94317
:10215000C90704D1891E0161204600F033F82068C8
:102160000169C943090609D4C168C943090605D4F0
:102170006FF0800101612046FFF741FE2068016990
:10218000C943490609D4C168C943490605D46FF05B
:1021900040010161204600F02BF820680169C94325
:1021A00089060BD4C168C943890607D46FF02001A2
:1021B00001612046BDE87040FFF722BE70BD704748
:1021C0007047000010B5044600680749884201D1F5
:1021D000FEF708FC0548844204D1BDE81040002009
:1021E00000F02AB910BD0000002C01402802002098
:1021F000704770B5040004D094F83D00002510B17C
:1022000006E0012070BD84F83C50204600F022F822
:10221000242084F83D002068C16821F40051C16089
:10222000204600F063FF2068016921F490410161BC
:102230002068416921F02A0141612068C16841F4A8
:102240000051C1602564202084F83D0084F83E00E0
:10225000002070BD30B585B0002400940194029434
:10226000039400681449884224D11448816941F4D8
:1022700080418161816901F480410491816941F06B
:102280000401816180690E4D00F0040004904FF458
:1022900000700090022001900320039069462846B8
:1022A000FEF7A2F92815CDE90004694628460294F4
:1022B000FEF79AF905B030BD003801400010024029
:1022C000000801402DE9F843044690F83D001F4600
:1022D00016460D4620284CD1C5B1BEB194F83C003D
:1022E000012846D0012084F83C004FF00008C4F8D3
:1022F0004080212084F83D00FEF77CFAA6848146C8
:10230000E684A068B0F5805F03D004E00120BDE85A
:10231000F883206928B12E465FF0000584F83C80E0
:102320000EE00026FAE78021204600F03BFFA0B92E
:10233000AEB116F8010B21684860E08C401EE084C5
:10234000E08C4B464FF0000200970028EBD14FF095
:102350004001204600F026FF30B10320D7E735F8D2
:10236000020BC0F30800E6E7202084F83D000020BF
:10237000CDE70220CBE7FEE7F0B500230A243025A5
:1023800037261F4611E000BFB4EB107F02D905EBE2
:10239000107C01E006EB107C01F813C001EB430C4C
:1023A00000015B1C8CF80170DBB29342ECD3F0BDF2
:1023B0002DE9F04186B000241C4800940194029459
:1023C0000394816941F020018161816901F020015C
:1023D0000491816941F0040181618069012200F06A
:1023E0000400134F1502049029463846FEF7FDF904
:1023F000DFF84080012204214046FEF7F6F90095FF
:10240000022601250396CDE9015469463846FEF7B8
:10241000EBF80420CDE90005CDE9024669464046C7
:10242000FEF7E2F806B0BDE8F081000000100240BF
:10243000000801400014014070B548B101281CD1CA
:102440000E4C04212046FEF7CBF978B100220EE0B5
:102450000B4D4FF4807421462846FEF7C1F908B1B0
:10246000002200E001222146284602E00122042148
:102470002046BDE87040FEF7B8B970BD00140140B9
:102480000008014030B585B0002419480194029439
:102490000394816941F020018161816901F020018B
:1024A0000491816941F004018161816901F00401B5
:1024B0000491816941F010018161816901F010018D
:1024C0000491816941F0080181618069102500F063
:1024D00008000490694600950648FEF785F8CDE9A6
:1024E0000054694604480294FEF77EF805B030BDFA
:1024F0000010024000080140001001400D4810B5D6
:102500000B4901600C49416000214FF48042816019
:10251000C0E9031241618161C1610162FEF770F996
:10252000002803D0BDE81040FEF72BB810BD000016
:10253000005400407C010020A086010010B5114C21
:102540000F484FF4007120604FF4827060600020EB
:10255000A060E0602061C4E905011021C4E9071012
:102560006062A0620A20E0622046FFF7C5FA08B167
:10257000FEF707F82068016841F04001016010BDD6
:1025800000300140D001002010B586B0002418486A
:10259000009401940294039404944FF080410594B4
:1025A000016041F61F41C0E9011441F28731C0E9E1
:1025B000031480218161FFF763FC08B1FDF7E1FF9F
:1025C0004FF48050009069460948FFF7D9FC08B1E4
:1025D000FDF7D7FF049404A905480594FFF712FC02
:1025E00008B1FDF7CEFF0248FFF794FC06B010BD1E
:1025F000280200200C4810B50A4901604FF4E1316F
:102600004160002181600C22C160C0E90412816137
:10261000C161FFF7EEFD002803D0BDE81040FDF7D3
:10262000B0BF10BD003801407002002010B500227C
:102630000B490C4801F000F808B1FDF7A2FF0A4968
:10264000084801F0CDF908B1FDF79BFF054801F0FE
:102650001DFA002803D0BDE81040FDF792BF10BD61
:1026600010000020B402002074000020FEE7FEE706
:102670001CB510A1D1E90001CDE90001102000F046
:10268000D7FB05226946302000F000F90522694693
:10269000102000F085F8002069460A5CA52A03D1C5
:1026A000401CC0B20528F8D3052801D001201CBD6C
:1026B00000201CBDA5A5A5A5A500000070B51C485F
:1026C00086B0816941F004018161816901F00401F2
:1026D0000491816941F0100181618069102400F04A
:1026E000100004900120CDE9004002900320114D1C
:1026F000039069462846FDF777FF0F4E694630463E
:102700000094FDF771FF0020CDE90040694628469E
:10271000FDF76AFF00F0A4F8002210212846FEF71A
:1027200064F8012210213046FEF75FF806B070BD54
:1027300000100240000801400010014010B5164C86
:10274000002210212046FEF750F80F21202000F033
:10275000C7F80121212000F0C3F80121222000F058
:10276000BFF82821252000F0BBF80F21262000F01B
:10277000B7F82021312000F0B3F8052207492A20BC
:1027800000F084F8012210212046FEF72EF8BDE863
:1027900010400120FDF7F8BE00080140C5490008BF
:1027A0002DE9F041DFF8408015460F46044600222F
:1027B00010214046FEF719F821460C4800F0BEFBF8
:1027C0000646002406E0FF21084800F0B7FB385514
:1027D000641CE4B2AC42F6D3012210214046FEF75D
:1027E00004F83046BDE8F08100100140D00100201F
:1027F00070B50B4D0446002210212846FDF7F5FF69
:102800002146084800F09AFBFF21064800F096FB9D
:102810000446012210212846FDF7E7FF204670BD3F
:1028200000100140D001002070B50546102000F0D6
:10283000FFFA0720FFF7DCFF04460146272000F0DF
:102840004FF860060AD5202229466120FFF7A8FF2D
:10285000FF21E22000F044F8002070BD012070BD8F
:1028600010B5094C2068016821F04001016000208A
:10287000206160612046FFF73FF92068016841F060
:102880004001016010BD0000D00100202DE9F041A1
:10289000DFF8448016460D460446002210214046CB
:1028A000FDF7A3FF21460D4800F048FB0746002432
:1028B00007E000BF15F8011B084800F03FFB641C4F
:1028C000E4B2B442F6D3012210214046FDF78DFF59
:1028D0003846BDE8F081000000100140D001002022
:1028E00070B50C4D0E460446002210212846FDF717
:1028F0007CFF2146084800F021FB0446314606488B
:1029000000F01CFB012210212846FDF76EFF204637
:1029100070BD000000100140D001002010B4002163
:10292000084B0A465FF0000003EBC004401CC0B235
:1029300062548028F8D3491CC9B20829F2D310BCCC
:1029400000F0AAB8C00A00204E4810B5816986B0D0
:1029500041F008018161816901F0080104918169F8
:1029600041F0100181618069012400F010000490A1
:102970004FF47070CDE900040320CDE902406946B0
:102980004148FDF731FEFF20009069463F48FDF7C2
:102990002BFE3F48416821F0E06141F080614160D9
:1029A0003C48C0F89C41C0F89841C0F8A441C0F828
:1029B000A0410021AE2000F095F80021D52000F0C4
:1029C00091F80021502000F08DF80021A82000F09F
:1029D00089F800213F2000F085F80021D32000F085
:1029E00081F80021084600F07DF80021402000F029
:1029F00079F800218D2000F075F80021142000F0F6
:102A000071F80021202000F06DF80021022000F074
:102A100069F80021A12000F065F80021C02000F035
:102A200061F80021DA2000F05DF80021122000F0AA
:102A300059F80021812000F055F80021EF2000F026
:102A400051F80021D92000F04DF80021F12000F0CC
:102A500049F80021DB2000F045F80021302000F08B
:102A600041F80021A42000F03DF80021A62000F04C
:102A700039F80021AF2000F035F8FFF74FFF06B01E
:102A800010BD00000010024000100140000C014089
:102A9000000001400000224270B5114E002400BF2A
:102AA00004F1B000C0B2002100F01CF8002108467B
:102AB00000F018F80021102000F014F85FF0000575
:102AC00006EBC5000121005D00F00CF86D1CEDB2B5
:102AD000802DF5D3641CE4B2082CE1D370BD000056
:102AE000C00A00200A4A136803F47F4303431360BB
:102AF0000848C0F8A0110021C0F8A411C0F89C112A
:102B00000121C0F89C11C0F8A411C0F8A0117047B1
:102B10000C0C0140000022422DE9F84F044640F61B
:102B20008F7B48F60F7A4FF002094FF4806874E10A
:102B3000B0F8441011F00F063AD030F8267039047E
:102B40007DD530F8261001EA0B0141F0800120F814
:102B5000261006EB860004EBC00595F8740105F518
:102B6000B47500286CD0E87802286AD028782268EA
:102B700032F8201048F68F73194048F2C003194309
:102B800022F820102878D4F800C03CF82010BCF8B7
:102B9000502049047ED509EBC000111808EB410014
:102BA0003CF800008005800D009074D02A89D8E0A0
:102BB000C9062DD4018801EA0A0141F400410180CF
:102BC000216804F12805B1F850202B7809EBC300E7
:102BD000024408EB4200085AC0F309006064E16B4C
:102BE0000844E06300212046FDF7CDFF94F824005F
:102BF00000289CD0A869002899D194F82400216865
:102C000040F08000A1F84C00002084F8240004E18A
:102C1000018804F5B4750A0521D5B0F850202B7849
:102C2000062101EBC3010A4408EB4201405A04F5B6
:102C30002C71C0F30903EB61EA88206802E0ACE084
:102C400068E07AE001F0BEFD2168088800EA0B0028
:102C500040F0800008802046FEF709FCDDE0090412
:102C6000D5D5018801EA0B0141F08001018020687F
:102C7000B0F850202B78062101EBC3010A4408EB81
:102C80004201405A83059B0DEB6110D0696971B117
:102C9000EA8801E058E056E0206801F093FDE96918
:102CA00068690844686100212046FDF775FF2068C7
:102CB000018809052DD4B0F850100844296900F2A4
:102CC0000C4051B13E2910D84A08C90700D0521C07
:102CD0004FF6FF7101EA82210FE0018821F4F841EB
:102CE0000180018841F4004107E04A09C90600D18A
:102CF000521E4FF4004141EA822101802068018880
:102D00004BF68F72114081F4405148F2800211431A
:102D1000018082E0D4F800C0BCF850102A78062068
:102D200000EBC200014408EB41003CF800008005C4
:102D3000800D00901AD0EA8813E03A4629462046D2
:102D4000FDF788FF009011E0062101EBC00011188B
:102D500008EB41003CF800008005800D009005D094
:102D60006A8903466046696901F02CFDE9690098AB
:102D70000844E8616969009808446861A86918B165
:102D800029690098814204D929782046FDF704FF7B
:102D900003E02946206801F0FBF938063DD506EB33
:102DA000860004EBC001206830F8262002EA0A02FF
:102DB00042F4004220F8262091F82B002831032805
:102DC00004D018B1022824D1F80522D42368B3F81E
:102DD00050200D7809EBC500024408EB4200185A58
:102DE0008A69C0F3090082420CD9121A8A610BD099
:102DF0004A6902444A61CA691044C861206801F006
:102E0000C7F90AE000208861E9B22046FDF7BBFE61
:102E100003E03A462046FDF790FF2068B0F84410E2
:102E200009043FF585AE0020BDE8F88F704700002B
:102E30000B4910B50A68136823F0400313600A6851
:102E400013684FF6C774234013600A68136803437E
:102E500013600868016841F04001016010BD000086
:102E6000D001002038B50B46009204460022802194
:102E700000F008F8002804D0606D40F02000606584
:102E8000032038BD2DE9F8431E4691468846044686
:102E9000089DFDF7AFFC401B351AFDF7ABFC07465C
:102EA00025480068C0F3CB30684338E0701C37D049
:102EB000FDF7A0FCC01BA84203D215B1009860B377
:102EC0002CE02068416821F0E00141606068B0F5C5
:102ED000827F0BD1A068B0F5004F02D0B0F5806FB3
:102EE00004D12068016821F040010160A06AB0F5BA
:102EF000005F09D12068016821F400510160206859
:102F0000016841F400510160012084F85100002063
:102F100084F850000320BDE8F8830025401E00908F
:102F20002068816838EA010004D000214945BDD1FC
:102F30000020F0E70121F9E76C0000203EB5FF24F6
:102F40008DF80810012301AA02A90094FEF766FE7D
:102F500008B18DF804409DF804003EBD70477047ED
:102F600030B595B028216846FDF722FA14210AA849
:102F7000FDF71EFA18210FA8FDF71AFA012108041F
:102F8000CDE900100024029402250491CDE90750F8
:102F90004FF4E01009906846FEF71EFC08B172B6C7
:102FA000FEE70F20CDE90A054FF48060CDE90C4023
:102FB00002210AA80E94FEF703FB08B172B6FEE7E1
:102FC000102014940F900FA8FEF784FA002801D067
:102FD00072B6FEE715B030BD704700000148FFF73C
:102FE0003BB80000780A00200148FFF735B8000020
:102FF00028020020F0B502681C4B1D4D1D4E1E4FCF
:103000001E4C4FF0804C984209D0A04207D060453A
:1030100005D0A84203D0B04201D0B84204D122F07A
:10302000700E4A6842EA0E02984209D0A04207D0C8
:10303000604505D0A84203D0B04201D0B84203D1C8
:1030400022F44075CA682A434D6922F080022A435F
:1030500002608A68C2620A688262984201D0A04215
:1030600001D10969016301214161F0BD002C0140DA
:103070000004004000080040000C00400034014003
:1030800010B5846842EA032224F47F440A432243B1
:10309000826010BD826822F070020A4342F007018C
:1030A0008160704710B5036A046A24F00104046269
:1030B000846924F0F00444EA021423F00A020A436B
:1030C0008461026210BD10B5036A23F0100303622D
:1030D0008369046A23F4704343EA023224F0A003B4
:1030E00043EA01118261016210BD000070B504461F
:1030F00000680169E26821F44051114301612169CE
:10310000A0680843616908432168CA6841F20C63FA
:103110009A430243CA6020684169A26921F4407160
:10312000114341611E492068884202D1FEF70EFB1F
:1031300001E0FEF7FBFA00EBC00101EB0012606852
:1031400064218000B2FBF0F3B3FBF1F36FF01806DB
:103150007343B2FBF0F5B2FBF0F605EB83053223C7
:1031600003EB0515B5FBF1F5B6FBF1F605F0F0053F
:1031700005EB0615B2FBF0F6B2FBF0F0B0FBF1F098
:103180006FF01802504306EB800003EB0010B0FB19
:10319000F1F0216800F00F002844886070BD000045
:1031A000003801402DE9F041984617460E46044686
:1031B000069D1DE0681C1BD02DB1FDF71BFBA0EB8D
:1031C0000800A84214D92068C16821F4D071C160F8
:1031D0002068416921F001014161202084F83D000F
:1031E00084F83E00002084F83C000320BDE8F08114
:1031F0002068006836EA000004D00020B842D9D028
:103200000020F3E70120F9E710B5D0F8B4225268A6
:103210009047002010BD134610B50A46002100F06B
:1032200027FB002010BD134610B50A46002100F010
:10323000BAFB002010BD10B50446802100F098FBB9
:103240002046BDE81040002100F092BB10B50521DA
:103250000023C0F894121A46194600F009FB00201A
:1032600010BD10B50223C261C0F894320262134649
:103270000A46002100F097FB002010BD10B5042184
:103280000023C0F894121A46194600F08CFB002067
:1032900010BD000010B50A46024903A000F0E2F894
:1032A000004810BD7808002048494420436F6E66EE
:1032B0006967000012200880004870473000002035
:1032C00010B50A46024903A000F0CCF8004810BD32
:1032D0007808002048494420496E7465726661632D
:1032E0006500000004200880004870472C00002082
:1032F00010B50A46024903A000F0B4F8004810BD1A
:103300007808002053544D6963726F656C6563746F
:10331000726F6E696373000010B50A46024903A01C
:1033200000F0A0F8004810BD7808002053544D3339
:10333000322048756D616E20696E746572666163D6
:103340006500000010B51A2008800A480168001DB9
:103350000468001D0068081809D008220649FFF714
:103360000BF80549042210312046FFF705F8024802
:10337000801E10BDE8F7FF1F46000020F8B5044688
:103380000020ADF8000048880D46010A082948D2FF
:10339000DFE801F04704091747473C45D4F8B0126D
:1033A000207C0A6819E0207C02260028D4F8B402A8
:1033B00005D0C16A68468847014646703EE0816A8A
:1033C000F8E7C0B206282CD2DFE800F0030A101498
:1033D000181CD4F8B002426805E0694690471CE02A
:1033E000D4F8B0028268E2B1207CF6E7D4F8B002EB
:1033F000C268F8E7D4F8B0020269F4E7D4F8B00282
:103400004269F0E7D4F8B0028269ECE7207C40B969
:10341000D4F8B402416B6846884701460EE0207C30
:1034200020B129462046FFF706FFF8BDD4F8B402C4
:10343000016B68468847014607204870BDF80000C8
:1034400048B1EA8852B1824200D90246ADF8002064
:103450002046FFF706FFE8880028E6D12046FFF760
:103460000DFFF8BD70B5002300281ED004460025CE
:1034700002E06D1CEDB2641C2678002EF9D1022406
:1034800004EB450414801278CA545B1C0322CA540E
:1034900000245B1C06E0CA545B1CDAB28C54521C3C
:1034A000D3B2401C0278002AF5D170BD01004FF064
:1034B000000004D0012901D0022901D00220704768
:1034C00001207047D0F8B802002101730846704708
:1034D00070B50446812100F0CDF80025E562D4F8EE
:1034E000B80218B100F02FFCC4F8B852002070BD2B
:1034F0000A21018000487047240100202221018018
:1035000000487047AC00002022210180004870472D
:10351000D00000202221018000487047F4000020E4
:1035200010B5044604230322812100F095F90120FF
:10353000E062102000F008FCC4F8B80218B10021C5
:103540000173084610BD022010BD10B5134690F857
:103550009C42D0F8B822032C07D1147B2CB901244B
:1035600014730A46812100F01EFA002010BD0000ED
:1035700038B503460022D0F8B802ADF80020144652
:103580000A7812F0600216D0202A4AD14A78022A1C
:103590000ED0032A06D00A2A06D00B2A41D18978F8
:1035A000016042E001222BE04988090A41603CE0C9
:1035B0000122011D25E04A7832B1062A0BD00A2AE1
:1035C00023D00B2A2DD128E093F89C02032828D180
:1035D0000222694615E048882222B2EB102F05D15D
:1035E000CA884A2A00D94A22124809E02122B2EBAD
:1035F000102F16D10F48CA881838092A00D9092275
:1036000001461846FFF72DFE0FE093F89C22032A8F
:1036100007D1012200F10801F3E793F89C22032A65
:1036200005D01846FFF707FE0224204638BD8978EA
:103630008160FAE73001002010B580B1D0F8B432D3
:1036400013B10023C0F8B43209B1C0F8B01201219F
:1036500080F89C12027000F0BBF8002010BD022020
:1036600010BD10B5D0F8C002FDF7C6FABDE8104095
:10367000FFF71CBF10B5D0F8C002FDF797FABDE800
:103680001040FFF713BF2DE9F0411746044651B132
:10369000D4F8B40242691AB194F89C02032851D0BC
:1036A0000220BDE8F081D4F89432002504F1140022
:1036B000022B03D0042B3AD0C3B33CE0D0E9036320
:1036C0009E4207D9F11AC1608AB239462046FFF7F7
:1036D000AAFD12E08068B0FBF3F103FB110199B978
:1036E000984211D3D4F8981288420DD20022114684
:1036F0002046FFF798FDC4F8985200231A46194651
:10370000204600F0B5F816E0D4F8B402C16829B13B
:1037100094F89C02032801D1204688478021204646
:1037200000F026F92046FFF791FD04E0FFE7802135
:10373000204600F01DF994F8A002012804D184F875
:10374000A05201E0204690470020AAE770B5154638
:10375000044649B1D4F8B40282691AB194F89C02C3
:10376000032830D0022070BDD4F8941204F5AA705A
:10377000032902D005291ED027E0D0E903218A427F
:103780000BD9531AC3600846834200D303469AB24A
:1037900029462046FFF73FFD17E0D4F8B40201693F
:1037A00029B194F89C02032801D12046884720467D
:1037B000FFF764FD09E000200146C4F894022046AA
:1037C00000F0D6F801E020469047002070BD0000D0
:1037D00010B517490446C1F8E802C0F8C0121548F0
:1037E0000860082048600220886000208861C86165
:1037F00008620846FDF780FD08B1FCF7C2FE002212
:10380000D4F8C0021823114604F53074FDF79CF972
:103810005823002280212068FDF796F94FF4807329
:10382000002281212068FDF78FF9002010BD0000E3
:103830008C050020005C00400A0601F07F01D0F8F2
:10384000C00201EB810100EBC10002D590F82A0013
:10385000704790F86A01704710B51C461346D0F8BF
:10386000C0022246FDF701FCBDE81040FFF71EBE76
:1038700010B5D0F8C002FDF728FCBDE81040FFF7F6
:1038800015BE70B50022044640231146FFF7E4FF41
:1038900040260125C4F86461334600228021204679
:1038A000C4F85851FFF7D8FF6662A56184F89C52AE
:1038B0000020C4F894026060C4F8A402D4F8B802EE
:1038C00028B1D4F8B4020021426820469047002075
:1038D00070BD90F89C12042903D190F89D1280F8D5
:1038E0009C120020704710B590F89C12032904D157
:1038F000D0F8B412C96901B18847002010BD017425
:103900000020704710B5D0F8C002FDF79CFDBDE85F
:103910001040FFF7CBBD70B5044600F52A70054690
:1039200000F04AF80120C4F89402B4F8AE02C4F8DA
:10393000980294F8A80210F01F010AD001290DD0B6
:10394000022910D000F08001204600F011F800207C
:1039500070BD2946204600F09EF8F8E7294620462B
:1039600000F0CAF9F3E72946204600F01DF9EEE71A
:1039700010B5D0F8C002FDF7C1FBBDE81040FFF75D
:1039800095BD10B5D0F8C002FDF778FDBDE8104038
:10399000FFF78CBD90F89C1280F89D12042180F8EE
:1039A0009C120020704710B5D0F8C002FDF7DFFB75
:1039B000BDE81040FFF77ABD0A7802704A7842707D
:1039C0008A78CB7802EB032242800A794B7902EBAA
:1039D000032282808A79C97902EB0121C180704774
:1039E0000246002011B1C2F8B4127047022070479D
:1039F00010B5D0F8B42202241AB11268904700B969
:103A00000024204610BD000070B50E461E4D89787A
:103A100004462970012931D894F89C0202280BD061
:103A200003280FD031462046FFF705FC29782046B1
:103A3000BDE87040FFF7E8BBD9B10320616084F8AE
:103A40009C0209E071B16068884212D0C1B2204680
:103A5000FFF7DAFB297861602046FFF7C9FF0228EB
:103A60000CD006E0022084F89C0220466160FFF73B
:103A7000CBFB2046BDE87040FFF700BC3146204636
:103A8000BDE87040FFF7D7BB7000002010B5FFF70E
:103A900078FF002010BD2DE9F0410A78002612F0D1
:103AA000600208D0202A01D0402A70D1D0F8B42278
:103AB000926890476DE04B78002201250A2B66D270
:103AC000DFE803F0405D6557650805652C29FFF7C1
:103AD00055FC5EE004468888D8B9C888C8B94888CB
:103AE000802816D200F07F0794F89C02032810D09B
:103AF00084F89E7239462046FFF704FF2046FFF700
:103B0000BDFB1FB1022084F89C0242E084F89C5265
:103B10003FE020463BE0FFF777FF3AE0CB88012B00
:103B200035D190F89C32012B04D0022B02D0032B0C
:103B30002DD104E08260012200F1080116E001228B
:103B4000011D13E090F89C22012A03D0022A01D023
:103B5000032A1CD1CA88022A19D1C560D0F8A41240
:103B600009B10321C160022200F10C01FFF779FBCA
:103B70000FE0498801290CD1C0F8A45211E090F857
:103B80009C32012B08D0022B06D0032B04D0FFF768
:103B900052FB3046BDE8F08149880129F9D1C0F8CF
:103BA000A422FFF76BFBF4E72DE9F0410A46044637
:103BB00010780027097910F060030AD0202B01D07B
:103BC000402B50D1D4F8B402114683682046984760
:103BD0008FE0C0F34110012806D05078D0B30128FF
:103BE0002AD003283FD107E0D4F8B40211468368F5
:103BF0002046BDE8F041184794F89C02022802D004
:103C0000032872D10AE071B380296ED02046FFF7F5
:103C1000AFFE80212046FFF7ABFE6AE0508838B93E
:103C200031B1802904D0D08810B92046FFF7A0FE1A
:103C30002046FFF723FB5CE094F89C020228E2D0C8
:103C4000032852D1508898BB4806F1D02046FFF790
:103C500008FDEDE7FFE794F89C020026022803D058
:103C6000032842D112E040E009B180293DD1080685
:103C700001F07F0000EB800004EB800101D51431DE
:103C800001E001F5AA7102220E602AE0080601F0A7
:103C90000F0000EB800004EB80000AD5806920B3A0
:103CA00001F07F0000EB800004EB800514350BE091
:103CB0001FE0D0F85801C0B101F07F0000EB800098
:103CC00004EB800505F5AA7541B1802906D0204690
:103CD000FFF7B2FD10B10120286000E02E60022243
:103CE00029462046FFF7BDFA03E011462046FFF7BC
:103CF000A2FA3846BDE8F08170B5054608780C4652
:103D000010F0600003D0202801D0402816D195F88B
:103D10009C02012803D0022801D003280ED120796B
:103D200001280BD8D5F8B402826828469047E1886C
:103D3000014306D12846FFF7A1FA02E02846FFF723
:103D40007AFA002070BD704700487047780500205F
:103D50002DE9F0470C78002630F8243048F68F1211
:103D60001340CA78002A7DD0012A7CD0022A02D0D2
:103D7000032A7FD0012648F28002134320F8243022
:103D80000D7830F8254048F68F731C402C431443BF
:103D900020F825400D7B48F2C00C48F6BF744CF269
:103DA00080074BF68F79EDB391F80080C24630F86A
:103DB000285048F280181D4045EA080520F82A508E
:103DC000B0F8505091F80080054405EB0815B1F8A3
:103DD000088028F00108A5F80084B0F8505091F848
:103DE0000080054405EB0815B1F80A8028F00108A9
:103DF000A5F808844D78002D0D7830F825804FEA1D
:103E000048487DD0B8F1000F07DA30F8258008EA7D
:103E1000030848EA070820F825800F7830F8275073
:103E20006D0600E02CE006D530F827501D4045EA2D
:103E30000C0520F82750CB780D78012B30F8253071
:103E400003EA040301D083F02003134320F8253054
:103E50000B7830F8231001EA0901114320F82310F0
:103E6000304602E003E008E004E0BDE8F08743F4F8
:103E7000007380E743F4C0637DE743F480637AE72F
:103E80004D782DB3B0F850500F78054405EB071569
:103E9000CF8827F00107A5F800740F7830F8275075
:103EA0006D0606D530F827501D4045EA0C0520F870
:103EB0002750CB78012B06D00B7830F82310214007
:103EC00081F02001C9E70B7830F823102140C4E7C6
:103ED000B0F850400D78044404EB0514CD8825F06B
:103EE0000105A4F80854B0F850400D78044404EBE0
:103EF00005140D6904F20C4475B13E2D14D800E090
:103F000030E04FEA550CED0701D00CF1010C4FF6F3
:103F1000FF7505EA8C2511E0258825F4F8452580F4
:103F2000258845F4004509E04FEA551CED0601D10E
:103F3000ACF1010C4FF4004545EA8C2525800D7845
:103F400030F82540640405D530F825401C403C433A
:103F500020F825400B7830F8231001EA090181F49C
:103F600040517AE7B8F1000F07DA30F8258008EA07
:103F7000030848EA070820F825800F7830F8275012
:103F80006D0606D530F827501D4045EA0C0520F88F
:103F900027500D7830F8253003EA090383F44053A5
:103FA000134320F825308EE7002070472DE9F043B9
:103FB00091F80C804F780A7848F6BF7C4BF68F79E1
:103FC00048F2800348F2C0054CF2800648F68F7430
:103FD000B8F1000F28D0002F30F822704FEA474781
:103FE00048D0002F05DA30F822702740374320F8F8
:103FF00022700A7830F822707F0605D530F82270DA
:1040000027402F4320F822700D7830F825202240D9
:10401000324320F825200C7830F8242002EA0C02E4
:104020001A4320F824201AE07FB130F82260760687
:1040300005D530F8226026402E4320F822600A7809
:1040400030F8221001EA0C010EE030F822506D0425
:1040500005D530F822502540354320F822500A7803
:1040600030F8221001EA0901194320F8221000203B
:10407000BDE8F083002F05DA30F82270274037437F
:1040800020F822700A7830F82260760605D530F8DC
:10409000226026402E4320F822600E7830F8262039
:1040A00022402A4320F826200C7830F8242002EA07
:1040B00009021A4320F82420C1E70020704700209D
:1040C0007047012120F8401F00210180818001827A
:1040D0000846704730F8401F21F43F41018000201E
:1040E00070470020704730B50A7BB2BB4A7848F66B
:1040F0008F7548F28004C2B10B7830F82320520645
:1041000007D530F823202A4048F2C0052A4320F87A
:104110002320CA78012A20D00A7830F8221048F6E5
:10412000BF73194081F0200114E00A7830F8223082
:104130005B0407D530F822302B404CF280052B432E
:1041400020F822300A7830F822104BF68F7319408D
:1041500081F44051214320F82210002030BD10B5D9
:104160004A780978002A48F2800330F8212005D0E7
:1041700048F6BF74224082F0100204E04BF68F74C0
:10418000224082F480521A4320F82120002010BDE2
:104190002DE9F0470E464B78097B04464FF00009A5
:1041A00048F68F7248F2800A4FF6FF774FF40048C6
:1041B000012B09D000296ED0F07802286CD001289C
:1041C0006BD00120BDE8F087B5693069854200D920
:1041D0000546C9B1F17848F28013022923D031781D
:1041E00034F821001040184324F82100306A401BA5
:1041F0003062307834F82010490671787ED5002975
:104200007DD001297CD03FE1ABB2F28820467169B4
:1042100000F0F6FAB4F850003178204400EB0110B9
:10422000A0F80454EAE0316A81426AD9317834F85E
:1042300021001040184324F82100306A401B3062EE
:10424000307834F82010490671786CD511B1012905
:1042500024D02AE0B4F85010214401EB001000F201
:104260000C404DB13E2D0FD86908EA0700D0491C1B
:1042700007EA8121018018E0018821F4F8410180DA
:10428000018841F40041F5E76909EA0600D1491EB9
:1042900048EA8121EEE79CE1BCE126E2B4F8502037
:1042A000111901EB0010A0F80C547289ABB2204632
:1042B000716900F0A5FA7069284470613169306A4B
:1042C000884202D9401B306202E00546C6F82090C1
:1042D000707800287CD1B4F850003178204400EB8D
:1042E000011000F204406DB13E2D13D86908EA07B1
:1042F00000D0491C07EA8121018012E001E19BE026
:10430000BBE084E0018821F4F8410180018841F498
:104310000041F1E76909EA0600D1491E48EA812116
:10432000EAE7328965E011B1012921D027E0B4F82C
:104330005010214401EB001000F204404DB13E2D1D
:104340000FD86908EA0700D0491C07EA81210180DB
:1043500015E0018821F4F8410180018841F4004111
:10436000F5E76909EA0600D1491E48EA8121EEE72E
:10437000B4F85010214401EB0010A0F80454328925
:10438000ABB22046716900F03BFA70692844706155
:104390003169306A884202D9401B306202E005462A
:1043A000C6F82090707800287ED1B4F8500031789B
:1043B000204400EB011000F20C4055B13E2D10D806
:1043C0006908EA0700D0491C07EA812101800FE053
:1043D00072E0018821F4F8410180018841F4004134
:1043E000F4E76909EA0600D1491E48EA8121EDE7B0
:1043F0007289ABB22046716900F002FA317834F864
:10440000210048F6BF72104080F03000C0E13278E1
:1044100034F8220048F68F63184040EA0A0024F876
:104420002200B4F850003278204400EB02108BB226
:10443000A0F804343289DDE7B4F85010214401EBD0
:10444000001000F20C404DB13E2D0FD86908EA076C
:1044500000D0491C07EA8121018015E0018821F480
:10446000F8410180018841F40041F5E76909EA0655
:1044700000D1491E48EA8121EEE7B4F85020111915
:1044800001EB0010A0F80C547289ABB220467169A0
:1044900000F0B6F97069284470613169306A884269
:1044A00003D9401B306203E06EE00546C6F8209059
:1044B000002DA3D0707858B101287FF41EAFB4F856
:1044C00050003178204400EB0110A0F8045428E794
:1044D000B4F850003178204400EB011101F204419E
:1044E0003E2D06D86808EA0700D0401C07EA802065
:1044F00005E06809EA0600D1401E48EA80200880ED
:104500000FE711B1012921D027E0B4F85010214460
:1045100001EB001000F204404DB13E2D0FD86908A8
:10452000EA0700D0491C07EA8121018015E00188D3
:1045300021F4F8410180018841F40041F5E769095F
:10454000EA0600D1491E48EA8121EEE7B4F850108E
:10455000214401EB0010A0F804543289ABB220468C
:10456000716900F04DF97069284470613169306AF1
:10457000884202D9401B306202E00546C6F820900E
:10458000002D96D0707858B101287FF420AFB4F890
:1045900050100819317800EB0110A0F80C5427E7EF
:1045A000B4F850003178204400EB011101F20C41C5
:1045B0003E2D06D86808EA0700D0401C07EA802094
:1045C00005E06809EA0600D1401E48EA802008801C
:1045D0000EE7B1693069814202D9091AB161B5E0CB
:1045E0000846C6F81890B1E0088820F4F840088022
:1045F000088840F400400BE03E2875D84208C00708
:1046000000D0521C07EA822002E000BF48EA822064
:104610000880B5E093B9B4F850003178204400EB3D
:104620000110316900F2044069B13E2913D84B08EA
:10463000C90700D05B1C07EA83210180707888B12C
:10464000012832D03AE0018821F4F8410180018844
:1046500041F40041F1E74B09C90600D15B1E48EA6D
:104660008321EAE7B4F850003178204400EB0110D0
:10467000316900F20C4049B13E290FD84B08C907F7
:1046800000D05B1C07EA8321018017E0018821F438
:10469000F8410180018841F40041F5E74B09C90662
:1046A00000D15B1E48EA8321EEE7B4F850100819E8
:1046B000317800EB0110318AA0F80C14F069A8B32E
:1046C000317834F82100430401D5430603D444F281
:1046D0004003184254D134F82100104048F2C0027F
:1046E000104324F821004BE03CE0B169306981427D
:1046F00002D9091AB16102E00846C6F818908BB9D0
:10470000B4F850103278214401EB021101F2044157
:1047100068B13E2813D84208C30700D0521C07EAEC
:1047200082220A80717889B1012921D028E00A8883
:1047300022F4F8420A800A8842F40042F1E7420972
:10474000C30600D1521E48EA8222EAE7B4F85010AC
:104750003278214401EB021101F20C4100287FF470
:104760004BAF41E74209C0067FF450AF521E4DE700
:10477000B4F850201119327801EB0211A1F80C04A1
:10478000317834F821004BF68F72104080F440509D
:1047900040EA0A0024F82100002013E50021A0F8D7
:1047A00044104FF43F41A0F8401000207047000033
:1047B0000148FCF7F6BC00008C050020B0F844006E
:1047C0007047000010B500EB42005C0800F5806007
:1047D00009D000BF30F8042B01F8012B120A01F8B0
:1047E000012B641EF6D1DA0701D00088087010BDD5
:1047F0000020704711B98021A0F84C1000207047AC
:1048000010B55B1C00EB42005B0800F5806009D02E
:1048100011F8012B11F8014B42EA042220F8042B75
:104820005B1EF5D110BDFEE70907090E002804DB69
:1048300000F1E02080F80014704700F00F0000F154
:10484000E02080F8141D70477047000013B54FF644
:10485000FF73012269460248FDF734FD00981CBD34
:10486000700200201CB5FCF7C5F8FEF779FBFDF7D8
:104870009FFDFEF769F8FDF705FEFDF785FEFDF7E4
:10488000B9FEFDF73BFEFDF7D1FEFDF757FEFDF744
:1048900015FF4FF47A7405E02FA0FBF7DBFC2046F0
:1048A000FBF772FEFDF7E4FE0028F5D130A0FBF720
:1048B000D1FCFDF743FF33A0FBF7CCFC354C0025C2
:1048C0003220FBF761FE01A8FDF7AEFF40B132A038
:1048D000FBF7C0FC00202554401C0428FBDBEFE75D
:1048E0009DF804009DF8062000F07F019DF805006A
:1048F000930600F07F0000D54942D30600D5404220
:10490000244B00295E680E445E609E6806449E60EB
:1049100000DA491E6170002800DA401EA0701006FF
:1049200001D502202070500601D50120207010070B
:1049300002F0070000D54042E070042215491B48F0
:10494000FEF703FEE0780090A3786278217818A043
:10495000FBF780FCBEE700006E6F7420666F756E1B
:1049600064204E524632344C30310D0A00000000B3
:104970004E524632344C30312065786973740D0ADA
:104980000000000072656365697665206D6F64657F
:104990000D0A0000000000204E524632344C3031E7
:1049A000206661696C65640D0A000000B402002095
:1049B00025642C25642C25642C25640D0A00000038
:1049C00034431010013443101001000000000000B7
:1049D00000000102030406070809000000000102AC
:1049E00003040000044A0008000000207C010000CD
:1049F0006C010008E04A00087C010020A4130000BC
:104A0000C8010008011013B5321B08E5041AF104AF
:104A10001319331B0845041A950C1AC10417040313
:104A2000090412013202164083042B5726020102A8
:104A30000301031A1A03191F1182105324F41321BE
:104A4000351408D1341B087108811AC51001101AD9
:104A500009201AFD181A15081AF108140902221360
:104A600001011DE032090459140301021509211145
:104A7000011401224A1607058103041A0A34091E8B
:104A8000240A21072429486912314B0A06F429CC4B
:104A9000100A05010902A1010901A110080509195F
:104AA00001290315180F2501950375018102950150
:104AB0007505810120281730093109381581257FB6
:104AC000750895038106C0093C05FF090129200EE0
:104AD00075019502B12275069501B101C000000073
:0400000508000131BD
:00000001FF
