:020000040800F2
:10000000F8070020B101000803360008472E000859
:100010000136000835170008853C00080000000084
:10002000000000000000000000000000153A000879
:100030003717000800000000E5380008173A0008EC
:10004000CB010008CB010008CB010008CB01000860
:10005000CB010008CB010008CB010008CB01000850
:10006000CB010008CB010008CB010008CB01000840
:10007000CB010008CB010008CB010008CB01000830
:10008000CB010008CB010008CB010008CB01000820
:10009000CB010008CB010008CB010008CB01000810
:1000A000CB010008793A0008CB010008CB01000819
:1000B000853A0008CB010008CB010008CB010008FD
:1000C000CB010008CB010008CB010008CB010008E0
:1000D000CB010008CB010008CB010008CB010008D0
:1000E000CB010008CB010008CB01000800F002F8AA
:1000F00000F04EF80AA090E8000C82448344AAF174
:100100000107DA4501D100F043F8AFF2090EBAE871
:100110000F0013F0010F18BFFB1A43F0010318473B
:10012000D4510000F4510000103A24BF78C878C1BF
:10013000FAD8520724BF30C830C144BF04680C60ED
:10014000704700000023002400250026103A28BF35
:1001500078C1FBD8520728BF30C148BF0B60704739
:10016000662904F09087782900F0B280002070475B
:100170001FB59DE8030000F0D7F900F0DDFC040096
:100180000020002104F03EF8E0601FBD10B510BD56
:1001900000F011FE1146FFF7EBFF03F01FFF00F028
:1001A0002FFE03B4FFF7F2FF03BC03F0F8FD0000DD
:1001B0000948804709480047FEE7FEE7FEE7FEE7FB
:1001C000FEE7FEE7FEE7FEE7FEE7FEE70448054937
:1001D000054A064B70470000773A0008ED0000081A
:1001E000F8010020F8070020F8030020F8030020A1
:1001F00070B5A0FB0140B4F1805170F1000024BF44
:10020000002070BD204600F0BEF905001CBF21464D
:1002100000F06CFC284670BD70B50446051F00F068
:1002200067F90068002C14BF446870BD002C18BF2B
:10023000AC423CBF20466468F8D301680A18AA4261
:1002400018BF456003D12A6805461144016028683B
:100250004119A1421CBF6C6070BD61686960216872
:100260000844286070BD00000FB4044910B503AA0B
:10027000029800F029FC10BC5DF814FB000000207F
:1002800070B5044685690068C10601D5302600E0D6
:100290002026C00707D070BDD4E901213046904721
:1002A000206A401C20626D1EF6D570BD70B50446F4
:1002B00085690078C00707D170BDD4E901212020ED
:1002C0009047206A401C20626D1EF6D570BD00006C
:1002D00070B504460D4621461068AFF300802188B2
:1002E000090502D50F4A7A4402E00E4A7A440E32DA
:1002F000002104F1240305E000F00F060009965DDB
:100300005E54491C0028F7D120780023000704D54B
:10031000702D02D009B1022311322046BDE8704091
:1003200000F06BB9B24E00002DE9F0474FF0000A23
:1003300089460446C0F820A02046E1688847002886
:1003400076D0252806D0D4E901219047206A401CA8
:100350002062F1E7E168204600258847C4F81CA028
:1003600006460027C4F818A02A2E09D0304603F00C
:100370000FFD38B304EB8708303EC8F8186019E069
:1003800059F8041B204604EB87029161E168884715
:10039000012F064618D1E069002820DA25F0200553
:1003A0001DE0D8F8180000EB800006EB4000303864
:1003B000C8F818002046E1688847064603F0E8FCC4
:1003C0000028EED1012F0AD02E2E08D12046E16858
:1003D00088477F1C0646022F45F02005C4DBA06934
:1003E000002803DA404245F00105A061E80701D08A
:1003F00025F01005B6B1A6F14100192802D8203623
:1004000045F400654A463146204625604D46FFF7D3
:10041000A7FE58B1012806D0ED1D25F0070000F118
:10042000080989E704E005F1040985E730468AE711
:10043000206ABDE8F08710B5203AC0F00B80B1E823
:100440001850203AA0E81850B1E81850A0E8185009
:10045000BFF4F5AF5FEA027C24BFB1E81850A0E812
:10046000185044BF18C918C0BDE810405FEA827C2C
:1004700024BF51F8043B40F8043B08BF7047D20743
:1004800028BF31F8023B48BF11F8012B28BF20F8E4
:10049000023B48BF00F8012B70474FF0000200B547
:1004A000134694469646203922BFA0E80C50A0E897
:1004B0000C50B1F12001BFF4F7AF090728BFA0E845
:1004C0000C5048BF0CC05DF804EB890028BF40F811
:1004D000042B08BF704748BF20F8022B11F0804F53
:1004E00018BF00F8012B7047704770477047000035
:1004F000004870479C010020704770477047704764
:1005000038B504460A4600206946AFF3008000284B
:1005100008BF38BD02460099204600F01CFB0120B0
:1005200038BD012000F040BCF8B5AFF300800546AF
:1005300000200C46102000BF0646A819A0420DD985
:10054000324669460020AFF30080070008BF00F084
:100550002BFC0098A04218BF0546C419FFF7C8FF3E
:1005600005600746F01D20F007004619284600F0F8
:10057000EBFAB44208BFF8BDA21B31463868BDE8AB
:10058000F84000F0E8BA70B50646FFF7B1FF05681D
:1005900006F10B0020F00704B4429CBF002070BDA0
:1005A0002B466A68BAB11068A04210D304F1080162
:1005B00088423CBF5068586007D3516810194160A9
:1005C0001168091B016058601460101D70BD13464E
:1005D0005268002AE7D121462846FFF791FF0028FC
:1005E000DED170BD10B500F0ABFA006810BD10B5DB
:1005F000044600F0A5FA046010BD2DE9F0470D4651
:1006000099469246044600F124080168880604D5FC
:10061000E06921F01001216000E00120A84201DD25
:10062000471B00E00027A1697A1902EB0900081AAC
:10063000A0612078C00602D42046FFF721FE0026E4
:1006400008E0D4E901211AF806009047206A401C0E
:10065000761C20624E45F4DB2078C0060AD5204681
:10066000FFF70EFE06E0D4E9012130209047206A12
:10067000401C2062381EA7F10107F4DC07E0D4E932
:10068000012118F805009047206A401C2062281EAE
:10069000A5F10105F3DC2046FFF708FE20780006EF
:1006A00002D50220BDE8F0870120FBE770472DE965
:1006B000FF4F0C461E464FF0FF378BB0D2E90001CA
:1006C000DDF860800A908A46C1F30A5505B93D46B7
:1006D000002108464FF00000BAF1000F00F440007E
:1006E00005DA00EB80004FF4400101EA50004FEAC8
:1006F0009059B9F1010F00DDB9460A9850EA4A0055
:100700000ED044F61050A5F2FF3545432F14B8F132
:10071000000F1ED07542291E1EDDC9F100021CE02B
:10072000B8F1010F4FF0000001D0302103E0F24397
:1007300005E02154401CB042FBDB30460022002182
:1007400021540B99C1F80880C1E900200FB0BDE821
:10075000F08FBD1B6D1CDEE74A4600DA694206A831
:1007600000F0B0FA06AB93E8070003AB83E807009C
:1007700050460A9900F0D3FB8DE80700A0F5005021
:100780001F3800900398002D09DD42F21F014A46F0
:10079000084403A90390684600F032FE08E0A0F583
:1007A00000504A461F3803A90390684600F03CFEFB
:1007B0008DE807000004000C03D04FF0FF30410823
:1007C00000E01046B8F1000F03D000220092154659
:1007D0001EE0751E05D400F0D8F9303262556D1E4A
:1007E000F9D5B3460122084302D000227F1C04E061
:1007F0002078302801D100227F1E002A099786D058
:100800001DE0112D07DA00F0C0F9303262556D1C81
:1008100050EA0102F5D1084302D00098C8B10EE0B9
:100820000021681E05E0235C625C63542254401E74
:10083000491C8142F7DBAB46A81B401E09900020F3
:1008400004F80B000B98099AC0F80880C0E9002B47
:100850007CE711264FF0000859E72DE9F04F884654
:100860000446D21D22F0070191B0D1E90001CDE983
:100870000A0103F008FA02460B98C00F01D02D20A0
:1008800007E02068810701D52B2002E0202101EA42
:10089000C000032A099001D0072A05DB0346414620
:1008A000204600F0CFF90BE12078800601D5E06901
:1008B00000E00620B8F1650F814606D0B8F1660F5A
:1008C00018D0B8F1670F70D131E00020B9F1110FE5
:1008D000009001DB112301E009F101030AAA01A93B
:1008E0000CA8FFF7E4FEDDE90C70002609F1010514
:1008F000834647E001204B4600904FF000470AAA8C
:1009000001A90CA8FFF7D3FEDDE90DB00C995D46F7
:10091000002610B909F101000D18B9EB050003D448
:10092000C0F1FF3609F10105A5EB09002BE0B9F193
:10093000010F01DA4FF001090020B9F1110F009009
:10094000484601DD112300E003460AAA01A90CA8CC
:10095000FFF7ADFEDDE90C704D460026834620789A
:1009600000070AD4AB4500DA5D4601A8012D04DD7D
:10097000411911F8011C302907D04F4502DA17F14F
:10098000040F04DA012082460FE06D1EEEE7002F0F
:1009900002DCED1B3E4403E0781CA84200DD7D1C18
:1009A000B81B00F1010A4FF000472078000703D47C
:1009B000AA4501DB4FF0FF3A0021B7F1004F0DF1DE
:1009C00043088DF8431024D002202B23002F01DA96
:1009D0007F422D230A21021EA0F1010000DC5FB13D
:1009E00097FBF1FC97FBF1F201FB1C7C17460CF125
:1009F000300C08F801CDEEE7A8F101000370218862
:100A0000090501D5452100E06521A0F1010800F8A4
:100A1000011C09980FA9A1EB0807FF1D00B10120D7
:100A2000411901EBEA70A1693844081A401EA0611F
:100A30002078C00602D42046FFF722FC099828B18E
:100A4000D4E901219047206A401C20622078C0062A
:100A500022D52046FFF714FC1EE0002E04DBB34530
:100A600002DD01A8805D00E03020D4E9012190473B
:100A7000206A401C2062761CAAF101005FEA000A8D
:100A80000AD100F059F8C0680168405CD4E901213E
:100A90009047206A401C2062281EA5F10105DCDC7D
:100AA00007E0D4E9012118F8010B9047206A401CA7
:100AB0002062381EA7F10107F3DC2046FFF7F6FBA2
:100AC000032011B043E60000074B70B50D467B4490
:100AD00000F0A5F80446284600F062F910B14FF086
:100AE000FF3070BD204670BDF33400004FF00002AF
:100AF0000429C0F0128010F0030C3FF4D0ACCCF10C
:100B0000040CBCF1020F18BF00F8012BA8BF20F89D
:100B1000022BA1EB0C01FFF7C2BC5FEAC17C24BF32
:100B200000F8012B00F8012B48BF00F8012B70479B
:100B3000004870479401002000487047B40100202D
:100B4000004870479401002000210160C0E90110B5
:100B5000704710207047034640688C46002818BF35
:100B600088423CBF03464068F8D31868184488425E
:100B700007D00CF1030020F00700001D411A521AA3
:100B80000146081D0A60FFF747BB30B5B0F10A0205
:100B90004FEA900E71F100034EEA817EB0EB0E0039
:100BA00061EB91014FEA101E4EEA017E10EB0E0040
:100BB00041EB11114FEA102E4EEA016E10EB0E00C0
:100BC00041EB11214FEA104E4EEA014E10EB0E00A0
:100BD00041EB1141401841F100014FEAD00040EAD9
:100BE00041704FEAD10110EB80054FEA810444EADD
:100BF000907444EB01046D1944EB0404521BA341AF
:100C00004FF0000348BF0A3200D530BD401C41F10F
:100C1000000130BD01694A1C02610878704700B5C7
:100C20008FB0CDE901310021059105497944CDE925
:100C3000031011466846FFF777FB0FB000BD0000B8
:100C4000E5FFFFFF2DE9F0411F460446032601683A
:100C5000072A01F4006004DB08B116A505E016A51B
:100C600003E008B115A500E015A521F010002060F3
:100C7000A069C01EA0610FB1401EA0612046FFF711
:100C8000FFFA4FB1D4E9012138469047206A401C51
:100C90002062C01C206206E0206AFAE7D4E9012144
:100CA00015F8010B9047761EF8D22046FFF7FEFAA2
:100CB000BDE8F0814E414E006E616E00494E460027
:100CC000696E66002DE9F047814616468AB03348C2
:100CD00078440DC88DE80D0030487844801C03AC82
:100CE0000DC884E80D0041F69B300844372190FB85
:100CF000F1F290FBF1F5A5F1800501FB12041B3C1C
:100D000002D56442012000E00020DFF890A0804678
:100D10000027FA44AAF1BE0A0DE0E00709D03246E6
:100D2000684607EB47010AEB810100F07DFB8DE887
:100D3000070064107F1C002CEFD1184F7F44AC3F9C
:100D400018E0E80714D007EB04100DF1180A90E83A
:100D50000E008AE80E00C068F04201D19819089090
:100D6000324606A903A800F05FFB03AB83E8070047
:100D70006D10641C002DE4D132466946B8F1000FB5
:100D800003A802D000F03CFB01E000F04DFBC9E9F4
:100D90000001C9F808200AB0BDE8F0870846000045
:100DA000007B00F08000704710B500F037F8BDE818
:100DB000104000F02EB87546FFF7BAFEAE460500AB
:100DC0006946534620F00700854618B020B5FFF766
:100DD000FDF9BDE820404FF000064FF000074FF04E
:100DE00000084FF0000B21F00701AC46ACE8C00949
:100DF000ACE8C009ACE8C009ACE8C0098D46704752
:100E000010B50446AFF300802046BDE81040FFF760
:100E1000C8B9002801D002F0C2BF704710B5012840
:100E200005D0002103A000F061F8012010BD09A148
:100E3000F8E7000053494752544D454D3A204F754D
:100E400074206F662068656170206D656D6F7279C2
:100E5000000000003A2048656170206D656D6F727A
:100E60007920636F72727570746564004FF0013C95
:100E700050F8042B51F8043B9A4221D1A2EB0C0309
:100E8000934313EACC1317D150F8042B51F8043BC9
:100E90009A4215D1A2EB0C03934313EACC130BD166
:100EA00050F8042B51F8043B9A4209D1A2EB0C03F1
:100EB000934313EACC13DBD04FF00000704700BF20
:100EC000D01A01BAB1FA81F101F0180122FA01F049
:100ED000CB40C1F12001DBB2C0B2C01A2CFA01F341
:100EE000D11A914311EAC311E6D1704770B5054696
:100EF0000C460A2000E06D1C02F052FF35B1287844
:100F00000028F8D102E0641C02F04AFF14B12078F6
:100F10000028F8D1BDE870400A2002F041BF5FEA26
:100F2000400C08BF91F0000F4FEA8C234FEAC1221A
:100F300043EA51514FEA1C5018BF00F5F0404FEA08
:100F4000300018BF41F000415FEA6C5C00F029807E
:100F5000BCF1FF3F08BF40F080407047130C06BF54
:100F600012044FF0100C4FF0000C130E04BF1202CD
:100F70000CF1080C130F04BF12010CF1040C930FB9
:100F800004BF92000CF1020CD30F04BF52000CF10D
:100F9000010C11464FF00002A0F11F00A0EB0C0065
:100FA000704711F0004F08BF704731F000413FF427
:100FB000D5AF0B0C06BF09044FF0100C4FF0000C1E
:100FC0000B0E04BF09020CF1080C0B0F04BF090142
:100FD0000CF1040C8B0F04BF89000CF1020CCB0F39
:100FE00004BF49000CF1010CCCF12003A0EB0C0074
:100FF00022FA03F302FA0CF241EA030100F10100C4
:10100000704720F07F4C80EA030023F07F47ACEB71
:10101000070303F57C5300F0004003F1FF032DE9C3
:1010200080494FEA154B09B44FEA144325EA0B4EA9
:1010300024EA03480FF2042606EB132749083E78FA
:101040005FEA320203FB0667C7F5000707FB06F6F7
:101050004FEA54374FEAD64606F1020607FB066C04
:10106000CCF1005C4FEA1C472CEA074C07FB06F466
:101070000CFB06F504EB15464FEA961634BF00202C
:101080004FF000404FEAD13706FB07FC4FEA1C4CFB
:101090000CFB0BF7D21B03FB0CF761EB07010CFBFE
:1010A0000EF7B0EB074072EB17420CFB08F734BFAA
:1010B000A2EB0742B2EB074261EB17414FEA0C4447
:1010C0004FEA910706FB07FC4FEA1C4C0CFB0BF7A1
:1010D000B0EBC74072EB573203FB0CF734BFA2EB07
:1010E000C742B2EBC74261EB57310CFB0EF7B0EBD6
:1010F000C70072EB57720CFB08F734BFA2EBC702B4
:10110000B2EBC70261EB5771039F4FEA816141EA7D
:10111000921104EBCC044FEAD1374FEA826206FB0E
:1011200007FC42EA90124FEA80604FEA1C4C0CFB2D
:101130000BF7D21B03FB0CF761EB07010CFB0EF75F
:10114000B0EB074072EB17420CFB08F734BFA2EB81
:101150000742B2EB074261EB17414FEA8C554FEA69
:10116000910704EB9C2406FB07FC4FEA1C4C0CFB8C
:101170000BF7B0EBC74072EB573203FB0CF734BFF1
:10118000A2EBC742B2EBC74261EB57310CFB0EF743
:10119000B0EBC70072EB57720CFB08F734BFA2EB41
:1011A000C702B2EBC70261EB577115EB4C254FEA52
:1011B000816141EA92114FEA82624FEAD13742EAF5
:1011C000901206FB07FC44F100044FEA80604FEAEE
:1011D0001C4C0CFB0BF7D21B03FB0CF761EB07015C
:1011E0000CFB0EF7B0EB074072EB17420CFB08F755
:1011F00034BFA2EB0742B2EB074261EB174115EB9C
:101200001C154FEA813141EA92414FEA823242EAAB
:1012100090424FEA80304FEA0C7644F1000448EAED
:1012200003434EEA0B484FF0000EB2EB080C71EB93
:10123000030724BF624639464EEB0E0E4FF0000BFB
:101240000018524149414BEB0B0BB2EB080C71EB10
:1012500003077BF1000B24BF624639464EEB0E0EAE
:101260004FF0000B0018524149414BEB0B0BB2EB16
:10127000080C71EB03077BF1000B24BF6246394673
:101280004EEB0E0E51EA020718BF46F0010616EBB0
:101290000E7655F1000254F1000103D5BDE8890135
:1012A000BDE80088BDE88901BDE80048B619524193
:1012B00041EB0101A3F10103704780807F7E7D7CBB
:1012C0007B7A7978777676757473727171706F6ED8
:1012D0006E6D6C6C6B6A6A69686867666665646483
:1012E000636362616160605F5F5E5E5D5D5C5C5B0D
:1012F0005B5A5A595958585757565655555554547C
:10130000535352525251515050504F4F4F4E4E4DD9
:101310004D4D4C4C4C4B4B4B4A4A4A494949484825
:101320004847474747464646454545444444444365
:1013300043434342424242414141002B26D477007D
:1013400021D01CB54FEA370703B44FF010004FF01F
:1013500010014FF000000FBCBDE810400BF1010B75
:10136000BBF1010F08BF5FEA170722BF12F10102AC
:1013700011F101014FF0004143F1000300F0004082
:1013800043EA00007047F9D35708DAE746EA064611
:1013900013F1400F4FEA16461FDD13F1200FDFBF98
:1013A00016430A46002120335B42C8D0C3F1200710
:1013B00046EA064602FA07F74FEA164646EA0706E5
:1013C000C3F1200722FA03F201FA07F721FA03F129
:1013D0004FF0000342EA0702B1E746EA020646EA96
:1013E00006464FEA164646EA0106BCBF46EA0646EE
:1013F000360C4FF000034FF000024FF000019EE763
:101400002DE9C048934630B491E8380007C831EA66
:10141000400C48BF34EA430C03D5FFF7F2FDFFF759
:101420008CFFF0BCBDE800882DE9C048934630B47D
:1014300091E8380007C810F0804F08BF13F0804FC4
:1014400003D100F005F8FFF778FFF0BCBDE8008895
:1014500020F07F4780EA030023F07F4C07EB0C036A
:10146000A3F57C5300F00040A3F1FE0392F0000FBF
:1014700000F0B38095F0000F00F077802DE901496E
:101480004FEA11404FEA144621EA004800FB06FCEF
:1014900024EA064708FB06F607FB08F800FB07F7F7
:1014A00018EB06484CEB164C4FEA124B18EB07486A
:1014B0004FEA15464CEB174022EA0B4E0BFB06FC9D
:1014C00025EA06470EFB06F607FB0EFE0BFB07F7A9
:1014D0001EEB064E4CEB164C4FF000061EEB074E73
:1014E0004CEB174B18EB0B0840F1000018EB0E0B00
:1014F00058EB000840F100008F1A4FF000013CBF8C
:10150000C943661B14BFB5EB040C00213CBFC943A3
:10151000F61B4FEA17444EEA8E0E27EA04454FEABF
:101520001C4704FB07622CEA074C05FB07F70CFB82
:1015300005F604FB0CFC16EB074642EB174216EBD4
:101540000C4642EB1C421BEB060658EB02024141E3
:1015500046EA9E0601D5BDE80189B619524141EB24
:101560000101A3F10103BDE801894FEA14454FEAE7
:10157000114724EA054621EA074C05FB07F406FB60
:1015800007F70CFB06F105FB0CFC11EB074144EBE4
:1015900017444FEA124711EB0C4144EB1C4422EA7A
:1015A000074C05FB07F206FB07F70CFB06F605FBED
:1015B0000CFC16EB074642EB174216EB0C4642EBCF
:1015C0001C456A1854F1000148BF7047B6195241D2
:1015D00041EB0101A3F10103704795F0000F37D0F3
:1015E0004FEA11424FEA144721EA024624EA074C27
:1015F00002FB07F106FB07F70CFB06F402FB0CFCF1
:1016000014EB074441EB17414FEA154714EB0C4428
:1016100041EB1C4125EA074C02FB07F506FB07F7E7
:101620000CFB06F602FB0CFC16EB074645EB1745D8
:1016300016EB0C4645EB1C42121951F1000148BF54
:101640007047B619524141EB0101A3F10103704704
:101650004FEA14454FEA114724EA054621EA074CB0
:1016600005FB07F106FB07F70CFB06F24FF000063F
:1016700005FB0CFC12EB074241EB174112EB0C424D
:1016800051EB1C4148BF7047921841EB0101A3F197
:10169000010370472DE9F0478146089888469A462D
:1016A0001546014603F0AEFB04465146084603F0DA
:1016B000A9FB214603F0FCFA03F0CEFA02F07CFD10
:1016C00007460E4685F0004003F0C6FA3A46334618
:1016D00002F090FE02F066FB144E154F32463B4678
:1016E00002F0E0FF02F0A4FD2946C8F80000084619
:1016F00003F088FB214603F0DBFA03F0ADFA02F0B9
:101700005BFD05460C46504603F0A6FA2A462346E2
:1017100002F070FE02F046FB32463B4602F0C2FF8A
:1017200002F086FDC9F80000BDE8F087F8C1631A31
:10173000DCA54C40FEE7704772B6FEE72DE9F041AC
:101740000E460746154620210120FEF751FD0446AE
:1017500028210120FEF74CFD206028210120FEF702
:1017600047FD0146606017480860216808606168AD
:10177000154848602168486061681448886021689D
:101780008860206800212022C6606068C5602068EB
:101790004161206881612068C161206801626068E0
:1017A0004161606881616068C16160680162C4E92B
:1017B0000265C4E9046521463846BDE8F041FEF7FC
:1017C0003ABE00006F12833AA69B443B8FC2F53CA1
:1017D00070B5044600F008F90546601C02D00448C4
:1017E0000078044400F000F9401BA042FAD370BD19
:1017F000040000202DE9F84FDFF8B891002409F12A
:10180000040A0AF1040B23460F270BF1040EC9E06A
:101810000125A5402A40AA427DD1674ED1F804C0D7
:10182000ACEB0608B44532D014DCBCF1030F3AD05F
:1018300009DCBCF1000F2AD0BCF1010F1CD0BCF1B7
:10184000020F31D11DE0BCF1110F17D0BCF1120F06
:101850002AD119E0B8F5881F19D006DCB8F5803F09
:1018600015D0B8F5801F1FD111E0B8F5001F0ED0BC
:10187000B8F5041F18D10AE0CB6815E0CB681B1D32
:1018800012E0CB6808330FE0CB680C330CE08B68B8
:101890002BB1012B4FF0080303D0456104E0042372
:1018A00002E0056100E00023FF2A01D8064601E0BE
:1018B00000F104064FEA840501D9A5F12005D6F808
:1018C000008007FA05FC28EA0C0803FA05F548EA47
:1018D0000508C6F800804D68ED0062D5374DAE6949
:1018E00046F00106AE61AD6924F0030605F001057E
:1018F0000095334D06EB050CDCF80850A607360FB3
:1019000007FA06F825EA0805DFF8B880404503D154
:101910004FF0000817E044E0DFF8AC80404502D10A
:101920004FF001080FE0DFF8A480404502D14FF0EE
:10193000020808E0DFF89880404502D14FF0030824
:1019400001E04FF0040808FA06F848EA0508CCF868
:1019500008804D68D9F80060ED034D4601D5164367
:1019600000E096432E604D68DAF80060AD035546FE
:1019700001D5164300E096432E604D68DBF8006009
:10198000ED025D4601D5164300E096432E604D689A
:10199000DEF80060AD02754601D5164300E09643BF
:1019A0002E60641C0D682A46E5407FF431AFBDE827
:1019B000F88F0000000401400000111000100240E8
:1019C0000000014000080140000C014000100140EF
:1019D000001401408068084000D0012070470AB11F
:1019E000016170470904FBE7014880687047000007
:1019F0000400002070B5040025D094F83D000025B7
:101A000020B984F83C50204600F078FA242084F86D
:101A10003D002068016821F0010101602068016833
:101A200041F4004101602068016821F40041016037
:101A300000F0FAFB4D4A6168914201D84C4900E040
:101A40004C49884201D2012070BD4B492368B0FB4C
:101A5000F1F15E6826F03F060E435E6063689342D4
:101A600006D94FF4967359434FF47A73B1FBF3F1EF
:101A70002368491C1E6A26F03F06314319626168DB
:101A8000914210D84900401EB0FBF1F2521CC2F343
:101A90000B02042A01D2042022E0B0FBF1F0401C2A
:101AA000C0F30B001CE0A268F2B301EBC10303EB2F
:101AB0000116431EB3FBF6F35B1C43F480431B0586
:101AC00049D092B301EBC10202EB0111401EB0FB01
:101AD000F1F0401CC0F30B0040F4804040F40040A3
:101AE0002168CA694CF6FF739A431043C861D4E970
:101AF000071001432068026822F0C0021143016010
:101B0000D4E9030101432068826848F2FF339A4315
:101B100011438160D4E9050108432168CA6822F0B5
:101B2000FF021043C86001E00EE016E02068016883
:101B300041F0010101602564202084F83D00256307
:101B400084F83E50002070BD01EB4106431EB3FBFC
:101B5000F6F35B1CB3E70120C2E701EB4101401E35
:101B6000B0FBF1F0401CC0F30B00B7E7A08601000A
:101B700080841E0000093D0040420F002DE9FF4F08
:101B800083B00025DDE910799A4693460446DDF8D6
:101B900048800095FFF728FF064694F83D0020286E
:101BA0007CD11923012285492046009601F05CFA78
:101BB0000028F5D194F83C0001286FD0012084F86A
:101BC0003C0020680168C90703D1016841F00101A8
:101BD00001602068016821F400610160222084F81E
:101BE0003D00402084F83E0025646762A4F82A90F6
:101BF000608D20857248E062CDE9008653465A46E2
:101C00002046049901F038F900287DD1208DDFF8B5
:101C1000B491202768B1012814D0022820680168F7
:101C20001ED041F4806101602068416980690090A4
:101C3000B6E02068416981690091016841F4007152
:101C40000160ADE02068016821F48061016072B636
:101C50002068416981690091016841F400710AE0DE
:101C600041F40061016072B62068416981690091A8
:101C7000016821F48061016062B691E0032868D8B0
:101C800001280CD0022843464FF000024946204666
:101C900000960FD001F0E8F9B0BB10E08BE03246BF
:101CA0004146204601F05FFA70BB20680069616A16
:101CB00008706CE001F0D8F930BB72B634E02068EF
:101CC000016821F48061016072B620680069616A70
:101CD0000870606A401C6062208D401E2085608D07
:101CE000401E6085384846F2A8110068B0FBF1F04C
:101CF000C0EBC00000EB80000090401E009008D0B8
:101D000020684069C04300E029E040070CD50098F6
:101D1000F3E744F8305F6773A573206940F0200053
:101D2000206162B625731AE02068016841F40071F1
:101D3000016020680069616A0870606A401C606226
:101D4000218D491E2185618D491E618562B62168FC
:101D50001BE032464146204601F005FA18B1012049
:101D600007B0BDE8F08F20680069616A0870606A9A
:101D7000401C6062218D491E2185618D491E61854F
:101D800021684A69D24352070AD409690170606A1E
:101D9000401C6062208D401E2085608D401E608545
:101DA000208D00287FF46AAF84F83D7084F83E509F
:101DB00084F83C50D4E70220D2E700000200100073
:101DC0000000FFFF04000100100000202DE9FF4F7C
:101DD00083B09A46DDE9119793460446DDF84080CA
:101DE000FFF702FE054694F83D0020287FD1192315
:101DF000012240492046009501F036F9002876D1AD
:101E000094F83C00012872D0012084F83C0020683E
:101E10000168C90703D1016841F001010160206830
:101E2000016821F400610160212084F83D00402018
:101E300084F83E0000262664C4F82480A4F82A9082
:101E4000608D20852C48E062CDE9007553465A46E6
:101E50002046049901F08EF870B930E02A463946E0
:101E6000204601F0B3F958B1206C042804D1206851
:101E7000016841F400710160012007B0BDE8F08FF6
:101E8000606A216800780861606A401C6062218D88
:101E9000491E89B22185628D521E6285226853696E
:101EA000DB435B070BD469B100781061606A401CAA
:101EB0006062208D401E2085608D401E6085208DD3
:101EC0000028CBD12A463946204601F0A7F8002841
:101ED000CAD154F83D0B016841F400710160202023
:101EE00004F81E09E67766770020C6E7FFE70220C0
:101EF000C3E70000020010000000FFFF10B586B02D
:101F00000021009101910291039100680F498842DC
:101F10001AD10F4CA06940F00800A061A069694681
:101F200000F008000490C0200090122001900320CF
:101F300003900848FFF75EFCE06940F40010E061A0
:101F4000E06900F40010049006B010BD0054004099
:101F500000100240000C01400248816802781144E0
:101F60008160704704000020074810B5016841F007
:101F700010010160032000F08FF80F2000F006F838
:101F800000F03EF8002010BD0020024000B50146E0
:101F900087B00022192000F05FF8192000F04EF8F9
:101FA0001348816941F400618161806905A900F4E9
:101FB00000600690684600F017F900F045F90D49F9
:101FC0000D4AB0FBF1F10D48491E0260416040F23C
:101FD000E7320021C0E90321816000F0C5FC10B1A7
:101FE000012007B000BD054800F008FDF9E700003A
:101FF0000010024040420F00002C01404C01002024
:102000000C4808B5816941F001018161816901F0E5
:1020100001010091C16941F08051C161C06900F0C6
:10202000805000900448416821F0E06141F0007167
:10203000416008BD0010024000000140002809DB9B
:1020400000F01F02012191404009800000F1E020D2
:10205000C0F8001170470000F0B40E4B1B680C462E
:10206000C3F30223C3F10705042D00D90425191D6C
:10207000072901D2002300E0DB1E012606FA05F144
:10208000491E214099409E40761E16403143F0BCC7
:1020900001F00DBE0CED00E0064900F007020868F3
:1020A0004FF6FF03184040EA0220034A104308603D
:1020B000704700000CED00E00000FA052DE9F04744
:1020C0000F46050061D0434E306800F00700B8426B
:1020D00009D2306820F0070038433060306800F0E3
:1020E0000700B84251D128683B4C810712D5400700
:1020F00003D5606840F4E06060602878000703D58D
:10210000606840F4605060606068A96820F0F0008A
:10211000084360602878C00728D06868012810D07C
:102120002168022810D0890700292EDA616821F081
:10213000030101436160FFF757FC804641F2883993
:102140000DE021688903EFE78901EDE7FFF74CFC1B
:10215000A0EB0801494502D90320BDE8F08760687B
:10216000696800F00C00B0EB810FEFD1306800F02F
:102170000700B8420BD9306820F0070038433060C0
:10218000306800F00700B84201D00120E5E7287868
:10219000400705D56068E96820F4E06008436060A6
:1021A0002878000706D56068296920F4605040EA65
:1021B000C100606000F058F86168084AC1F303117B
:1021C000515CC8400649086006480068FFF7DEFE1B
:1021D0000020C2E700200240001002407A510008AF
:1021E00010000020080000200F2202600C4A5368F3
:1021F00003F003034360536803F0F0038360536804
:1022000003F4E063C36052684FF4E06303EAD20270
:1022100002610448006800F0070008607047000091
:102220000010024000200240044805490068496847
:10223000044AC1F30221515CC840704710000020DD
:10224000001002408A5100080448054900684968A6
:10225000044AC1F3C221515CC840704710000020FD
:10226000001002408A51000812A185B00FC98DE804
:102270000F0014A0144A006804905168134801F03C
:102280000C03042B10D0082B0ED1C1F38343C903D8
:102290001DF803000AD5516804AAC1F34041515CFE
:1022A0000A4A5043B0FBF1F005B070470849484373
:1022B000FAE7000002030405060708090A0B0C0DE3
:1022C0000E0F1010010200000010024000127A00F0
:1022D00000093D002DE9F84F040070D02078C04D72
:1022E000C00749D06868C0F38100012807D068683A
:1022F000C0F38100022809D16868C00306D52868A8
:10230000800339D560680028E7D035E06068B0F513
:10231000803F0BD010B1B0F5A02F11D0286820F469
:1023200080302860286820F4802002E0286840F48B
:1023300080302860606890B1FFF756FB06460AE0DF
:10234000286840F480202860F0E700BFFFF74CFBCE
:10235000801B642873D828688003F7D50CE0FFF74A
:1023600043FB064605E000BFFFF73EFB801B6428E9
:10237000F0D828688003F7D420789A4E80074FF071
:1023800001094FF0000839D5686810F00C0F07D02C
:102390006868C0F38100022809D16868C00306D4C8
:1023A0002868800714D52069012808D110E0206929
:1023B000B0B1C6F80090FFF717FB074605E00AE149
:1023C000FFF712FBC01B0228C4D828688007F7D586
:1023D0002868616920F0F80040EAC10028600DE03B
:1023E000C6F80080FFF700FB074604E0FFF7FCFAA1
:1023F000C01B022823D828688007F7D4207800075C
:102400002CD57948A169D9B1C0F80090FFF7ECFA52
:10241000074604E0FFF7E8FAC01B02280FD8686AF5
:102420008007F7D571484FF4FA510068B0FBF1F01E
:10243000009000BF0098411E0091FAD20EE080E0AB
:10244000C0F80080FFF7D0FA074604E0FFF7CCFAA7
:10245000C01B022875D8686A8007F7D42078400727
:1024600060D5E8690027C00008D4E86940F08050D2
:10247000E861E869012700F0805000905C4801683D
:10248000C90513D40168834641F480710160FFF7E8
:10249000ABFA824606E000BFFFF7A6FAA0EB0A00FF
:1024A00064284ED8DBF80000C005F5D5E0680128A7
:1024B0000AD008B1052813D0286A20F0010028624C
:1024C000286A20F0040002E0286A40F00100286237
:1024D000E06841F2883B98B1FFF786FA82460BE04C
:1024E000286A40F004002862EEE700BFFFF77CFA9C
:1024F000A0EB0A0159455AD8286A8007F6D50CE0A6
:10250000FFF772FA824605E0FFF76EFAA0EB0A01C8
:1025100059454CD8286A8007F6D41FB1E86920F0E5
:102520008050E861E06988B36968C1F381010229DC
:1025300044D00228C6F8608004D0FFF755FA04465C
:1025400038E034E0FFF750FA074604E0FFF74CFAB2
:10255000C01B02282BD828688001F7D4206AB0F568
:10256000803F05D16868A16820F4003008436860A6
:10257000D4E908010843696821F4741108436860CC
:10258000C6F86090FFF730FA044606E025E000BF89
:10259000FFF72AFA001B022809D828688001F7D51E
:1025A0001BE000BFFFF720FA001B022802D903201E
:1025B000BDE8F88F28688001F4D40EE00128F7D038
:1025C0006868226A00F48031914204D1616A00F4A3
:1025D0007010884201D00120EAE70020E8E70000FF
:1025E00000100240000042428004424210000020DD
:1025F0000070004070B5040009D0606A002540B149
:1026000025616561A56294F8510040B10CE001209C
:1026100070BD6068B0F5827FF4D0E561F2E784F8C0
:102620005050204600F040F8022084F85100206805
:10263000016821F040010160A088218900F48270C6
:1026400001F404410843A18901F400610843217C9D
:1026500001F002010843217D01F001010843218BB3
:1026600001F400710843217F01F03801084394F818
:10267000201001F080010843218D01F4005108432E
:1026800021680860A069042101EA104021684860BF
:102690002068C16921F40061C1616565012084F889
:1026A0005100002070BD000030B585B000240094BA
:1026B00001940294039400681449884223D1144879
:1026C000816941F480518161816901F480510491F3
:1026D000816941F00401816180690E4D00F00400C0
:1026E0000490A020009002200190032003906946EE
:1026F0002846FFF77FF84020CDE9000469462846C8
:102700000294FFF777F805B030BD000000300140BB
:1027100000100240000801402DE9F84F044690F8EF
:10272000500000270A9E1D4692468B464FF0010935
:1027300001280ED0012084F85000FFF755F980469B
:1027400094F85100616801280CD0B1F5827F07D15F
:1027500002E00220BDE8F88FA16809B9042801D081
:102760000227C2E0BBF1000F27D0BAF1000F24D03E
:102770001DB394F85100042802D0052084F85100BC
:1027800000206065C4F838A0E587A587C4F830B09C
:10279000E586A5862064606420680168490603D444
:1027A000016841F040010160E068B0F5006F6068C9
:1027B00005D0E8B3012D46D07FE0012795E008B1B0
:1027C000012D39D1206B21680088C860206B801CE6
:1027D0002063E08E401EE0862EE020688168890735
:1027E0000FD5E18E69B1B9F1010F0AD1216B0988CA
:1027F000C160206B801C2063E08E401EE0864FF09D
:10280000000920688168C9070CD0E18F51B1C06808
:10281000A16B0880A06B801CA063E08F401EE08746
:102820004FF00109FFF7E0F8A0EB0800B04200E02C
:1028300009E001D3701C50D1E08E0028CDD1E08F8B
:102840000028CAD13FE0206B216800780873206B14
:10285000401C2063E08E401EE0862EE020688168E8
:1028600089070FD5E18E69B1B9F1010F0AD1216B4A
:1028700009780173206B401C2063E08E401EE086C7
:102880004FF0000920688168C9070CD0E18F51B171
:10289000C068A16B0870A06B401CA063E08F401E55
:1028A000E0874FF00109FFF79FF8A0EB0800B04266
:1028B00002D3701C01D010E07EB1E08E0028CDD193
:1028C000E08F0028CAD142463146204601F026F862
:1028D00028B101272020606507E0032705E0A068F4
:1028E00018B92068C16880680090012084F8510000
:1028F000002084F8500038462CE7704770470000ED
:1029000070B590F83C20012A26D0012480F83C4084
:10291000022280F83D2003685A689D6822F0700604
:102920000A6832435A600D4B02689A4208D0B2F1ED
:10293000804F05D00A4B9A4202D00A4B9A4204D1EA
:10294000496825F080031943916080F83D400021DB
:1029500080F83C10084670BD022070BD002C01407C
:10296000000400400008004010B5040003D094F8B3
:102970003D0010B107E0012010BD002084F83C00AC
:10298000204600F01FF8022084F83D00211D206839
:1029900001F07EF8012084F8460084F83E0084F8B7
:1029A0003F0084F8400084F8410084F8420084F835
:1029B000430084F8440084F8450084F83D0000207A
:1029C00010BD000008B50068B0F1804F12D10A4870
:1029D000C16941F00101C161C069002200F001003C
:1029E00000900E211C20FFF737FBBDE808401C209B
:1029F000FFF724BB08BD00000010024090F83D1016
:102A0000012901D001207047022180F83D100168A2
:102A1000CA6842F00102CA6000680B49884208D0C7
:102A2000B0F1804F05D00949884202D00849884258
:102A300004D1816801F00701062903D0016841F043
:102A40000101016000207047002C0140000400409B
:102A50000008004070B5044690F83C00012817D0EB
:102A6000012584F83C50022084F83D0020688268EB
:102A700022F0770222F47F4282600868502830D02A
:102A80000DDC20284DD005DC98B310283BD148E060
:102A9000022070BD302844D0402834D139E060286D
:102AA00028D0702806D0B0F5805F2CD0B0F5005F3C
:102AB00029D10AE0CB68D1E90121206801F01EF894
:102AC0002068816841F0770109E0CB68D1E90121F4
:102AD000206801F013F82068816841F4804181602A
:102AE00011E0CA684968206801F01AF8502120688E
:102AF00007E016E0CA684968206801F022F8602102
:102B0000206801F005F884F83D50002084F83C006E
:102B100070BDCA684968206801F002F84021206849
:102B2000EFE7226801461046EBE7704770B50446B0
:102B3000006801694FF00005C943890715D4C168D1
:102B4000C943890711D4E91E01610120207720685B
:102B500080698007204602D0FFF7E7FF04E000F01D
:102B600098F8204600F096F8257720680169C94357
:102B7000490717D4C168C943490713D46FF004014A
:102B80000161022020772068806910F4407F204690
:102B900002D0FFF7CAFF04E000F07BF8204600F007
:102BA00079F8257720680169C943090716D4C168F7
:102BB000C943090712D46FF008010161042020778E
:102BC0002068C0698007204602D0FFF7AEFF04E00E
:102BD00000F05FF8204600F05DF825772068016975
:102BE000C943C90617D4C168C943C90613D46FF0D5
:102BF00010010161082020772068C06910F4407F2F
:102C0000204602D0FFF791FF04E000F042F8204692
:102C100000F040F8257720680169C943C90708D149
:102C2000C168C943C90704D1891E0161204600F06B
:102C300033F820680169C943090609D4C168C9434A
:102C4000090605D46FF0800101612046FFF755FEAB
:102C500020680169C943490609D4C168C9434906C6
:102C600005D46FF040010161204600F029F820688A
:102C70000169C94389060BD4C168C943890607D4D1
:102C80006FF0200101612046BDE87040FFF736BEBD
:102C900070BD70477047000010B5044600680749D2
:102CA000884201D1FFF758F92068B0F1804F03D175
:102CB000BDE8104000F0B0BA10BD0000002C01408B
:102CC000704770B5040004D094F83D00002510B1A1
:102CD00006E0012070BD84F83C50204600F022F848
:102CE000242084F83D002068C16821F40051C160AF
:102CF000204600F039FF2068016921F4904101610C
:102D00002068416921F02A0141612068C16841F4CD
:102D10000051C1602564202084F83D0084F83E0005
:102D2000002070BD30B585B0002400940194029459
:102D3000039400681449884224D11448816941F4FD
:102D400080418161816901F480410491816941F090
:102D50000401816180690E4D00F0040004904FF47D
:102D600000700090022001900320039069462846DD
:102D7000FEF740FD2815CDE9000469462846029477
:102D8000FEF738FD05B030BD0038014000100240AC
:102D9000000801402DE9F843044690F83D001F4625
:102DA00016460D4620284CD1C5B1BEB194F83C0062
:102DB000012846D0012084F83C004FF00008C4F8F8
:102DC0004080212084F83D00FEF70EFEA684814657
:102DD000E684A068B0F5805F03D004E00120BDE880
:102DE000F883206928B12E465FF0000584F83C8006
:102DF0000EE00026FAE78021204600F011FFA0B97E
:102E0000AEB116F8010B21684860E08C401EE084EA
:102E1000E08C4B464FF0000200970028EBD14FF0BA
:102E20004001204600F0FCFE30B10320D7E735F822
:102E3000020BC0F30800E6E7202084F83D000020E4
:102E4000CDE70220CBE7FEE701684A69D24352058D
:102E50000FD46FF480624A61002140F8301F2022B5
:102E600042738173026942F004020261017301201E
:102E700070470020704700002DE9F84F04460068B5
:102E800089460B9D01689846174641F480610160B0
:102E90002068016841F48071016000954FF0011BCA
:102EA0000022594620460A9B00F0DEF84FF4007AD3
:102EB00040B120680068C00501D5C4F840A00320D7
:102EC000BDE8F88F216809F0FE0008612B4628490B
:102ED00020460A9A00F0FCF8F0BB2068416980693E
:102EE00000902A4620460A9900F070F940B1206C03
:102EF00004283AD12068016841F40071016034E08F
:102F0000FEB2B8F1010F09D02168380A08612A46DB
:102F100020460A9900F05AF90028E8D12068066195
:102F20002A4620460A9900F051F90028DFD120688E
:102F3000016841F4807101600095002259462046E5
:102F40000A9B00F091F80028B3D1216809F0FF0036
:102F500040F00100086100E007E02B4604492046EC
:102F60000A9A00F0B5F80028AAD00120A8E70000CE
:102F7000020001002DE9F843044600680D46DDE932
:102F8000089701689846164641F4807101604B46E7
:102F900000224FF001112046009700F065F848B17B
:102FA00020680068C00502D54FF40070206403203B
:102FB000BDE8F883216805F0FE0008613B464A46FB
:102FC0001549204600F084F888B920684169806975
:102FD00000903A464946204600F0F8F848B1206C87
:102FE000042804D12068016841F4007101600120C7
:102FF000DEE7F5B2B8F1010F09D02168300A0861A7
:103000003A464946204600F0E1F80028E7D120681A
:1030100005610020CCE700000200010070B51646F3
:103020000D4604460DE02046FFF70EFF08B10120D3
:1030300070BD681C05D0FEF7D7FC801BA84207D8DE
:1030400035B120684069C0434007ECD4002070BD12
:10305000002044F8300F20216173A073216941F0F2
:10306000200121612073E2E72DE9F0471E469046DA
:103070000D460446C1F30747DDF8209008E0701CB8
:1030800006D0FEF7B1FCA0EB0900B0420FD876B134
:103090002068012F18D0806925EA00000004000C88
:1030A00014D000214145EAD00020BDE8F08700207F
:1030B00044F8300F20216173A073216941F0200191
:1030C000216120730120F0E74069E5E70121E9E78C
:1030D0002DE9F0479A4691460E46044600254FF0EA
:1030E0002008C1F3074725E020684069C043400538
:1030F00014D42068016841F40071016021686FF404
:1031000080604861256384F83D8084F83E50206CDF
:1031100040F00400206484F83C501FE0B9F1FF3F08
:1031200008D0FEF761FCA0EB0A0149450CD8B9F1C3
:10313000000F09D02068012F13D0806926EA000013
:103140000004000C0BD0CFE744F8305F84F80D800A
:10315000A573206940F02000206125730120BDE89F
:10316000F0874069EAE72DE9F041002590460E46D8
:103170000446202717E04069C043C0060CD454F829
:10318000301B6FF01000486144F810596777A5773D
:10319000206A2062257717E0FEF726FCA0EB0800E6
:1031A000B04208D83EB120684169C9434906E2D41B
:1031B0000020BDE8F08144F8305F6773A573206993
:1031C00040F02000206125730120F2E770B516461B
:1031D0000D4604460DE02046FFF736FE08B10120FB
:1031E00070BD681C05D0FEF7FFFB801BA84207D806
:1031F00035B120684069C0430006ECD4002070BDA2
:10320000002044F8300F20216173A073216941F040
:10321000200121612073E2E770B5084D4FF400549E
:1032200021462846FEF7D6FB08B1002200E0012225
:1032300021462846BDE87040FEF7D1BB0010014092
:103240007CB514460D4606466A4606213B2000F032
:1032500087F800280BD1BDF8001049BA3180BDF8BD
:10326000021049BA2980BDF8041049BA21807CBDFA
:103270002DE9FC4115460E4607466A4606214320C5
:1032800000F06EF8040011D1BDF8000040BA01F062
:10329000A5FD3860BDF8020040BA01F09FFD306026
:1032A000BDF8040040BA01F099FD28602046BDE851
:1032B000FC81000010B51748FEF79CFB80216B20B5
:1032C00000F09CF8752000F031F8044600216B20D6
:1032D00000F094F8032000F05CF8002000F054F8AF
:1032E000322000F073F88021372000F087F8214663
:1032F00009A0FCF7B9FF682C01D0012010BD012105
:103300006B2000F07BF800216C2000F077F80020A3
:1033100010BD0000140000200D0A4D505536303508
:10332000303A30782532780D0A0000001FB50021B0
:103330008DF80C1040F6FF73012203A98DE80E00F2
:1033400013460246D1210548FEF718FC6420FEF71B
:103350003FFA9DF80C0004B010BD000014000020DE
:103360000EB540F6FF730092CDE90113024601232A
:10337000D1210448FEF702FC0A20FEF729FA0020BA
:103380000EBD000014000020C006010E1C2000F03D
:1033900035B8C006010E1B2000F030B8BC2801D3A0
:1033A000012110E0622801D302210CE02A2801D378
:1033B000032108E0142801D3042104E00A2801D3E2
:1033C000052100E006211A2000F018B810B50446C7
:1033D0004FF47A70844201D9044602E0042C00D2F2
:1033E0000424B0FBF4F0401EC1B2192000F006F82E
:1033F0006008BDE81040FFF7D1BF00001FB540F6E0
:10340000FF738DF80C10012203A98DE80E001346FE
:103410000246D0210448FEF7D9FC6420FEF7D8F913
:1034200004B0002010BD00001400002070B586B06C
:10343000002424480094019402940394816941F08B
:1034400010018161816901F010010491816941F0ED
:1034500020018161816901F020010491816941F0BD
:1034600004018161816901F004010491816941F0E5
:10347000080181618069144E00F008004FF4005586
:103480000490002229463046FEF7A9FA0120009553
:10349000CDE901040220039069463046FEF7AAF9FF
:1034A0001020CDE90004694608480294FEF7A2F90D
:1034B0001820CDE90004694605480294FEF79AF900
:1034C00006B070BD0010024000100140000801402D
:1034D000000C01400D4810B50B4901600C494160DA
:1034E00000214FF480428160C0E903124161816193
:1034F000C1610162FEF77EFA002803D0BDE81040EA
:10350000FEF71AB910BD000000540040140000205E
:10351000A0860100104810B50E4901604FF4827179
:10352000416000218160C1604FF400720161C0E917
:1035300005121022C0E90721416281620A21C1629D
:10354000FFF758F8002803D0BDE81040FEF7F4B8A4
:1035500010BD0000003001406800002010B586B0AA
:1035600000241848009401940294039404944FF0AA
:1035700080410594016041F61F41C0E9011441F208
:103580008731C0E9031480218161FFF7EDF908B1AB
:10359000FEF7D2F84FF48050009069460948FFF7D3
:1035A00059FA08B1FEF7C8F8049404A9054805942F
:1035B000FFF7A6F908B1FEF7BFF80248FFF71EFAB9
:1035C00006B010BDC00000200C4810B50A490160CB
:1035D0004FF4E1314160002181600C22C160C0E9FB
:1035E00004128161C161FFF76CFB002803D0BDE8C4
:1035F0001040FEF7A1B810BD0038014008010020BE
:10360000FEE7FEE71CB510A1D1E90001CDE90001FC
:10361000102000F069F905226946302000F01AF9FF
:1036200005226946102000F04DF8002069460A5C2A
:10363000A52A03D1401CC0B20528F8D3052801D023
:1036400001201CBD00201CBDA5A5A5A5A50000004E
:10365000194810B5816986B041F004018161816922
:1036600001F004010491816941F0080181618069E0
:10367000012100F0080004900320CDE90210CDE9FB
:1036800000010E4C69462046FEF7B4F81020009069
:103690000020019069460A48FEF7ACF800F056F8A1
:1036A000002202212046FEF79AF901221146204607
:1036B000FEF795F906B010BD00100240000C014065
:1036C000000801402DE9F041DFF8408015460F4623
:1036D0000446002201214046FEF781F921460C48AC
:1036E00000F088F90646002406E0FF21084800F0B3
:1036F00081F93855641CE4B2AC42F6D3012211467C
:103700004046FEF76CF93046BDE8F081000C014000
:103710006800002070B50B4D0446002201212846A8
:10372000FEF75DF92146084800F064F9FF210648DC
:1037300000F060F90446012211462846FEF74FF9D1
:10374000204670BD000C01406800002010B5094CF7
:103750002068016821F04001016000202061606163
:103760002046FEF747FF2068016841F040010160F4
:1037700010BD00006800002010B5194C0022022185
:103780002046FEF72CF905221649302000F062F899
:1037900014490522491D2A2000F05CF8012121204E
:1037A00000F082F80121222000F07EF8FF21242081
:1037B00000F07AF82821252000F076F80F21262045
:1037C00000F072F80E21202000F06EF80122022194
:1037D0002046FEF704F9BDE810400120FDF7F8BFD0
:1037E000000C01409251000870B50446102000F012
:1037F0007BF8164D002202212846FEF7F0F8202221
:103800002146A02000F026F8012202212846FEF7DA
:10381000E6F80F4C08212046FEF7DCF80028F9D125
:103820000720FFF777FF04460146272000F03CF809
:10383000E00605D5FF21E12000F036F8102070BD2C
:10384000A00601D5202070BDFF2070BD000C0140F6
:10385000000801402DE9F041DFF8448016460D468E
:103860000446002201214046FEF7B9F821460D48E2
:1038700000F0C0F80746002407E000BF15F8011B60
:10388000084800F0B7F8641CE4B2B442F6D3012251
:1038900011464046FEF7A3F83846BDE8F081000027
:1038A000000C01406800002070B50C4D0E46044627
:1038B000002201212846FEF792F82146084800F030
:1038C00099F804463146064800F094F80122114662
:1038D0002846FEF784F8204670BD0000000C014029
:1038E00068000020704700000B4910B50A68136893
:1038F00023F0400313600A6813684FF6C77423402F
:1039000013600A681368034313600868016841F094
:103910004001016010BD00006800002038B50B4672
:10392000009204460022802100F008F8002804D00C
:10393000606D40F020006065032038BD2DE9F8433C
:103940001E46914688460446089DFEF74DF8401BEA
:10395000351AFEF749F8074625480068C0F3CB3012
:10396000684338E0701C37D0FEF73EF8C01BA84211
:1039700003D215B1009860B32CE02068416821F0B3
:10398000E00141606068B0F5827F0BD1A068B0F5BE
:10399000004F02D0B0F5806F04D12068016821F09B
:1039A00040010160A06AB0F5005F09D1206801689C
:1039B00021F4005101602068016841F40051016068
:1039C000012084F85100002084F850000320BDE855
:1039D000F8830025401E00902068816838EA0100C5
:1039E00004D000214945BDD10020F0E70121F9E7CD
:1039F000100000203EB5FF248DF80810012301AA15
:103A000002A90094FEF788FE08B18DF804409DF8E5
:103A100004003EBD7047704730B58FB0282168461E
:103A2000FCF73BFD14210AA8FCF737FD012108042F
:103A3000CDE900100024029402250491CDE907503D
:103A40004FF4E01009906846FEF744FC08B172B6E6
:103A5000FEE70F20CDE90A054FF48060CDE90C4068
:103A600002210AA80E94FEF729FB002801D072B6A5
:103A7000FEE70FB030BD70470148FFF757B80000B0
:103A80004C0100200148FFF751B80000C0000020A1
:103A9000F0B50268164B174C174D4FF0804798420F
:103AA00005D0B84203D0A04201D0A84203D122F0F1
:103AB00070064A683243984205D0B84203D0A0420B
:103AC00001D0A84203D122F44074CA6822434C6951
:103AD00022F08002224302608A68C2620A6882621F
:103AE000984201D10969016301214161F0BD0000E3
:103AF000002C0140000400400008004010B584681C
:103B000042EA032224F47F440A432243826010BD28
:103B1000826822F070020A4342F007018160704718
:103B200010B5036A046A24F001040462846924F075
:103B3000F00444EA021423F00A020A438461026298
:103B400010BD10B5036A23F0100303628369046A91
:103B500023F4704343EA023224F0A00343EA011144
:103B60008261016210BD000070B504460068016901
:103B7000E26821F44051114301612169A0680843C2
:103B8000616908432168CA6841F20C639A430243A1
:103B9000CA6020684169A26921F440711143416102
:103BA0001E492068884202D1FEF74EFB01E0FEF775
:103BB0003BFB00EBC00101EB001260686421800058
:103BC000B2FBF0F3B3FBF1F36FF018067343B2FBF3
:103BD000F0F5B2FBF0F605EB8305322303EB051598
:103BE000B5FBF1F5B6FBF1F605F0F00505EB0615B2
:103BF000B2FBF0F6B2FBF0F0B0FBF1F06FF01802A0
:103C0000504306EB800003EB0010B0FBF1F021689D
:103C100000F00F002844886070BD000000380140AB
:103C20002DE9F041984617460E460446069D1DE0D4
:103C3000681C1BD02DB1FDF7D7FEA0EB0800A842F1
:103C400014D92068C16821F4D071C160206841692D
:103C500021F001014161202084F83D0084F83E00FC
:103C6000002084F83C000320BDE8F0812068006853
:103C700036EA000004D00020B842D9D00020F3E793
:103C80000120F9E7FEE7490050EAC12018BF0420EF
:103C90004A0D18BF40F0010040F2FF72B2EB515FD5
:103CA00008BF40F00200012808BF0520704709073F
:103CB000090E002804DB00F1E02080F800147047B2
:103CC00000F00F0000F1E02080F8141D70472DE98E
:103CD000F0414F1E00EBC7010446D1E90001154633
:103CE0001E4637F006020DD02A46334600F0DAFCB5
:103CF0007F1E04EBC703D3E9002300F0CBFA37F0B3
:103D00000602F1D1022F25D0042F13D0062F18BFA1
:103D1000BDE8F0812A46334600F0C4FCD4E90A230A
:103D200000F0B8FA2A46334600F0BCFCD4E9082378
:103D300000F0B0FA2A46334600F0B4FCD4E906237A
:103D400000F0A8FA2A46334600F0ACFCD4E904237C
:103D500000F0A0FA2A46334600F0A4FCD4E902237E
:103D600000F098FA2A46334600F09CFCD4E9002380
:103D7000BDE8F04100F08EBA012201F0B8B90000B0
:103D8000024A0020110701F0B2B9000001FDFFFF57
:103D900030380A2801D20120704700207047704750
:103DA000704700002DE9F84F04460D4621F0004011
:103DB00000917349814211DC7249884201DC06D1CD
:103DC0002CB120462946BDE8F84FFFF7D5BF6E4815
:103DD000002DCCBF6D496E49BDE8F88F6D49814219
:103DE00011DD6D498142D8BF4FF0FF366DDD2046B1
:103DF0002946FFF748FF042808BFFFF7C1FF204608
:103E00002946BDE8F88F6549654F25F00045814298
:103E100033DD6449814219DD002632464FF080438C
:103E20002046294600F036FA80468A46012220467E
:103E3000294601F05CF900223B4600F023FE424691
:103E4000534600F0D7FA04460D463EE00126002214
:103E5000BA463B462046294600F01CFA80460F46EB
:103E6000002253462046294600F00CFE42463B46BF
:103E700000F0C0FA04460D4627E04B4981421BDDA5
:103E8000DFF828A10226002253462046294600F0EA
:103E900009FC00223B4600F0FDF980460F46002257
:103EA00053462046294600F0EDFD42463B4600F0D1
:103EB000A1FA04460D4608E0032622462B460020C0
:103EC0003B4900F097FA04460D4622462B46104621
:103ED000194600F0E7FB8B46824602460B4600F08F
:103EE000E1FB07460246334888460B4606217844E4
:103EF000FFF7EDFE52465B4600F0D4FB82462E48AB
:103F00008B463A46434605217844FFF7E0FE3A46A1
:103F1000434600F0C7FB02460B46002E504659466A
:103F20000CDA00F0B7F922462B4600F0BBFB01B0DB
:103F300022462B46BDE8F04F00F0B2BC00F0AAF9D3
:103F400022462B4600F0AEFB1C4A7A4402EBC60325
:103F5000D3E9002300F096FD22462B4600F092FDA7
:103F6000174A7A4402EBC603D3E9002300F098FC19
:103F7000009A002AB8BF81F00041BDE8F88F000028
:103F8000000010440000F07F182D4454FB21F93F3D
:103F9000FB21F9BF0000DC3F0000203E0000F33FA2
:103FA0000000F03F0000E63F008003400000F83FC3
:103FB0000000F0BF3E130000FC1200009A12000047
:103FC0006212000013B54FF6FF73012269460248E2
:103FD000FEF7E0FE00981CBD08010020A8B0FDF728
:103FE000C3FFFFF719FDFFF721FAFFF7B7FAFFF755
:103FF00071FAFFF7E9FAFFF78DFAFFF75BF9FFF7C0
:1040000027FB26AA25A924A8FFF732F9DDE9061225
:1040100011A8FDF793FB202211A91CA8FCF70BFAAD
:10402000DDE90686242108A8FCF737FA4FF47A74F4
:1040300005E046A0FCF718F92046FDF7C9FBFFF79D
:10404000E1FA0028F5D146A0FCF70EF9FFF794FB42
:1040500047A0FCF709F91BAA1AA919A8FFF7F0F85D
:10406000BDF96C0000F0A2FE0546BDF9680000F045
:104070009DFE0446BDF9640000F098FE024623460A
:1040800007A906A80095FDF705FBDDE906500446E3
:10409000314600F083FF074607904146284600F06E
:1040A0007DFF06460690384600F0D6FD82468B46D8
:1040B000304600F0D1FD80468946204600F0CCFD18
:1040C00006460F46284600F0C7FD8DE8C00F0246A1
:1040D0000B462BA0FCF7C8F835490798884204D254
:1040E000B0F17E5F01DA002007900698884204D282
:1040F000B0F17E5F01DA002006902E4907988842D1
:1041000002D310228DF82020069E8E4202D3202159
:104110008DF8201000F02EFE80008DF82100304632
:1041200000F028FE80008DF822002646A8463220A6
:10413000FDF74EFB08A8FFF757FB00208DF8200085
:104140008DF821008DF8220085E700006E6F742045
:10415000666F756E642052462063686970000000C7
:104160004E524632344C30312065786973740A00FF
:104170007472616E736D6974206D6F64650A0000FE
:10418000726F6C6C3D252E34662C70697463683DCB
:10419000252E34662C645F726F6C6C3D252E346660
:1041A0002C645F70697463683D252E34660D0A00C7
:1041B000000080BF000080802DE9F04106460F46D8
:1041C00000F07AFB041E0D4618BF0120284320F0A2
:1041D0000040C0F17F6000F1E040C00F0ED0301C05
:1041E00018BF0120384320F00040C0F17F6000F18B
:1041F000E040C00F04BF0120FCF7F9F92046294632
:10420000BDE8F08110B500290AD00878002807D051
:1042100005487844FCF72AFE002801D0002010BD94
:104220000248784410BD000002110000FA1000009E
:1042300021F00042A2F16052B2F5801F01F000436C
:1042400028BFD2F17F6C0BD95FEA001C43EAC2029F
:1042500042EB507018BF704728BF20F00100704734
:10426000B2F5801FBCBF184670474FEA410C1CF5E1
:10427000001F02D2084600F08CBE70B500F0BCFAF8
:1042800000000089FFF7F6BF4FF00040A0F5800066
:104290007047000010B591EA030F48BF83F0004358
:1042A00000F1F883841A71EB030C05D2121943EB69
:1042B0000C03001B61EB0C01DFF824E14FEA115401
:1042C000A4EB135C1EEA430F18BF9EEA445F73D051
:1042D00023EA0E03DCF1200E21EA045143F480139B
:1042E00032D322FA0CFE10EB0E0023FA0CFE41EB47
:1042F0000E01CCF1200E03FA0EFE10EB0E0051F170
:104300000001B1F5801FCCF1200E32D201EB045137
:1043100012FA0EF2BDE8104058BF7047401C38BF7B
:104320005FEA420218BF7047002814BF20F0010066
:1043300041F100014FEA410313F5001F38BF7047F8
:10434000A1F1C04100F0A6BA012A43EB0302ACF18F
:10435000200CDCF11F0E32BF4FF0000E23FA0CF3DD
:1043600010EB030041EB0451B4EB115FD0D0A1EB93
:10437000045101F5801149085FEA300001EB045156
:104380000ED350F1000038BF12FA0EFE08D1BDE87E
:104390001040C9E7401C38BF5FEA4202CAD1C3E7F8
:1043A000BDE810404FEA410313F5001F38BF7047C6
:1043B000A1F1C04100F06EBA9EEA445F08D011EA54
:1043C0005E0FBDE8104004BF01F0004100207047BF
:1043D000BDE8104070B500F00FFA00BF64FBBE3EB0
:1043E0000000E0FF02494FF0000000F04EBE00BFA9
:1043F0000000F87F2DE9C04130B4DFF8A0C23CEAEC
:10440000111418BF3CEA131400F0EC8081EA030594
:104410001CEA111444EAD57418BF1CEA131500F005
:10442000C780A4EB05044FF0004545EAC12145EAE9
:10443000C32341EA505143EA525304F17F74994235
:1044400004F500344FEAC0204FEAC22208BF904270
:1044500000F09C804FEA13650FF24016765D4FEA3C
:10446000134506FB05F7C7F1807706FB07F74FEA10
:10447000D737A7FB03687642C8F58038A7FB06CE7E
:1044800038BFA8F1010807FB08E64FF0000EA6FBB5
:10449000028CE6FB03CEDCF1000CCEF1004E38BFFF
:1044A000AEF1010EA6FB0C584FF000074FF00005CF
:1044B000E6FB0E87A1FB08C6A0FB07CE16EB0E0697
:1044C00045F10005E1FB076515F1E04E7EBFA4F55F
:1044D00080345FEA46066D4116F1800745F100051C
:1044E0004FEA17274FEA066647EA0567A6F1DE4658
:1044F000B6F1805F4FEA15251FD9384624F0010C2C
:1045000005EBC471BCF1FE6F01EB0C1102D8F0BCDD
:10451000BDE8008124425CBF01F5801E9EEAC47F95
:1045200002D4F0BCBDE80081244238D4F0BCA1F133
:10453000C041BDE8004100F0ADB94FEAD22242EAE5
:1045400043524FEAD323A7FB02864FEAD02040EA2A
:10455000415007FB03661EEA0E0F4FEAD12105FB0F
:10456000026658BFA6EB0056B6EB00564FEA520E55
:104570004EEAC37E18EB0E0E56EB530EBDD518EB6C
:1045800002085E417F1C55F10005B6E74FF4801527
:104590004FF000074FF000064FF00008ADE7F0BC09
:1045A0004FF0000001F1C04101F00041BDE8008181
:1045B00011EA0C1F0CEA131500D00CE013EA0C1FD3
:1045C00000F025804FF00000F0BC81EA030101F00B
:1045D0000041BDE80081F0BCBDE8004181EA030173
:1045E00000F058B9F0BCBDE8004170B500F004F926
:1045F000097EFC3E00F007B881EA03014FF000009D
:1046000001F00041704781EA030100F043B9F0BCBA
:10461000BDE800414FF0000021497047FFFDFBF964
:10462000F7F5F4F2F0EEEDEBE9E8E6E4E3E1E0DEE5
:10463000DDDBDAD8D7D5D4D3D1D0CFCDCCCBCAC857
:10464000C7C6C5C4C2C1C0BFBEBDBCBBBAB9B8B77E
:10465000B6B5B4B3B2B1B0AFAEADACABAAA9A8A871
:10466000A7A6A5A4A3A3A2A1A09F9F9E9D9C9C9B3F
:104670009A999998979796959594939392919190EA
:104680008F8F8E8E8D8C8C8B8B8A8989888887877B
:104690008685858484838382828181800000FF07F0
:1046A0000000F87FDFF848C170B51CEA111E1EBF7C
:1046B0001CEA13159EEA0C0F95EA0C0F00F06F80B0
:1046C00081EA030423EA4C134EEAD47E21EA4C111A
:1046D00041F4801143F48013AE44A1FB024CA0FBD3
:1046E0000365AEF17F7E361955EB0C05A1FB034C3B
:1046F0004CF10003A0FB021C16EB0C06654153F1C4
:104700000003094218BF46F0010613F4007F0BD1E5
:104710004FEA03314FEA0530340341EA155140EACC
:1047200016506FF003020AE04FEAC3214FEAC5209A
:10473000F40241EA555140EA56506FF0020202EB92
:104740002E4201EB025585EACE710AD05FEA440C95
:1047500018BF24F0004450F1000041F1000120EAAC
:10476000D47040F2FE7C624500D270BDA84214BFF6
:104770004FF080444FF04044002E08BF0024BEF1AB
:10478000806FA8BFA1F1C041BDE8704080F2828077
:104790004FF0000001F1C04101F0004170479EEA76
:1047A0000C0F0CEA131518BF95EA0C0F06D04FF04A
:1047B000000081EA030E0EF0004170BD00F01CF80D
:1047C0008900013E00F007B800F009B84FEA430C39
:1047D0005FEA5C5C08D081EA030100F05BB84FEA55
:1047E000410C5FEA5C5CF6D14FF000000149704774
:1047F0000000FF070000F87F0EF1020E2EF0030EFE
:104800005EF8046B364205D4012A43EB030515F527
:10481000001F12D8012841EB010C1CF5001F0CD819
:104820000ED14FEAD17C15F5001F0CEB4C0C0CF1AE
:10483000020C08BF4CEBD37C04E04FF0080C01E005
:104840004FEAD37C0CEB4C0526FA05F606F007067A
:10485000B6F1040C06D20EEB860CBDE870404CF0AD
:10486000010C6047DFE80CF0090B02024FF0004139
:104870004FF00000A1F5002170BD19461046012837
:1048800051EB010418BFD4F5001484BF002001F0DF
:10489000004170BD0808A0F500114FEA31017047D2
:1048A00091EA030F10B581F000413FF5FBAC83F0B6
:1048B000004300F0EFB800002DE9F04101F5801C45
:1048C000BCF5001FC0F2C3804FEA115C21EA0C5115
:1048D0000CF1FD0C41F480115FEA5C0C0CF5C07C1E
:1048E00001D3400049413DA4890241EA9051870229
:1048F0008E0E0A0CA45D04FB04F602FB06F6C6F15C
:104900004046A4FB0662F60D46EA422606FB06F484
:10491000A4FB01235242C3F1404338BF5B1EA6FBF8
:1049200002420024E6FB0324D20B42EA4446A6FBE3
:104930000623A1FB02E2A3FB07E4A4184FF0000248
:1049400052F10002E3FB01426442C2F1404E38BF23
:10495000AEF1010EA6FB04234FF00002E6FB0E327F
:10496000A2FB03464FF00004B61954F10004E2FB29
:104970000264A1FB06E6A4FB07E816EB08064FF06D
:10498000000858F10008E4FB01687642C8F140587D
:1049900038BFA8F10108A2FB06E4A3FB08E52D1926
:1049A0004FF0000454F10004E2FB0854A1FB05E6BB
:1049B000A7FB04E818EB06084FF0000656F10006C6
:1049C000E1FB048618F1200556F10006A809A8F1BC
:1049D0001B08B10908F03F08B8F10A0F40EA8660E9
:1049E0001CD901EB0C51BDE8F08100BFFCF5EEE8ED
:1049F000E2DDD8D3CFCBC7C3C0BDB9B6B4B1AEAC7E
:104A0000A9A7A5A3A19F9D9B9A9896959392908FF5
:104A10008D8C8B898887868584838281A0FB006842
:104A200000FB01F208EB4208B8EB872807D53418E1
:104A300058EB0104D5D5401C51F10001D1E7341ADF
:104A400078EB0104CDD4401E71F10001C9E75FEAA3
:104A50004C0C5FEA9C5C0DD105D34FF0000001F0D7
:104A60000041BDE8F081BDE8F04170B5FFF7C4FE3C
:104A70006DDBFFBEBDE8F0414FF00000004970471C
:104A80000000F87F10B591EA030F48BF83F00043A0
:104A90003FF508AC841A71EB030C07D212198CF0A5
:104AA000004C43EB0C03001B61EB0C01DFF8A4E1AD
:104AB0004FEA1154A4EB135C1EEA430F18BF9EEAA1
:104AC000445F00F0B08023EA6E03524221EA0451B1
:104AD000C3EB6E0338BF5B1EDCF1200E25D322FA38
:104AE0000CFE10EB0E0043FA0CFE41EB0E01CCF174
:104AF000200E03FA0EFE10EB0E0051F10001CCF176
:104B0000200E29D412FA0EF201EB0451BDE8104038
:104B100058BF7047401C1CBFB2F1004F70470028BF
:104B20000CBF491C20F00100704712EB020E43EB52
:104B3000030218BF4FF0010E4EEA4202ACF1200C06
:104B4000DCF11E0E54D943FA0CFE10EB0E0051F1AD
:104B5000FF31CCF11E0ED5D50EF1010E12FA0EFE6C
:104B6000404141EB010101EB445C5FEA5C5C10D920
:104B700010EBDE7001EB045138BFBEF1004FBDE811
:104B8000104018BF704700280CBF491C20F00100DE
:104B9000704730D24FEAD42C11F5001124F4006490
:104BA0001BD0B1FA81F20B3AA41AA41ED2F1200351
:104BB000914030FA03F31943904001EBCC71002C83
:104BC00001EB0451BDE81040A8BF704701F1C0419E
:104BD0004FF0000001F000417047B0FA80F310FA86
:104BE00003F100D110BDE41A173C4805C90AE4E7F7
:104BF00001EB045110BD491001EB0451BDE8104018
:104C00004FEA300002E04FF0000170474A0008BF51
:104C10000042F8D0B2F5001F28BF704701F00041F4
:104C20004FF0000070479EEA445F07D011EA5E0F24
:104C3000BDE8104004BF002100207047BDE81040CF
:104C400070B5FFF7D9FD00BF40DFF63E83F00041AD
:104C5000104670470000E0FF43004FEAD30C4FEAD4
:104C60003C0C43401FBF40070CF1605113F0FE4F56
:104C700070471CF0006F03D100200CF0004170471A
:104C80000CF0004343EA507010B540EACC0000F04D
:104C90003AF900BF000000924FEA0001FFF7FABDA9
:104CA0004FF000414FF00000A1F5002170470000D7
:104CB00090EA010F48BF81F0004100F17681421A6D
:104CC0003CBF801A89184FEAD0524FF07F4C1CEA43
:104CD000410FA2EBD15318BF9CEA026F00F03B805A
:104CE0004FF0004C4CEA00204CEA012121FA03FC71
:104CF00010EB0C0C1ED202F1FF325FEA1C2040EBDD
:104D0000C25038BF70471CF07F0F4FEA400C18BFED
:104D1000BCF17F4F38BF7047C3F12003994008BFF3
:104D200020F00100BCF17F4F38BF7047A0F1C040B8
:104D300000F02FB94FEA3C00000A40EBC25028BFF8
:104D40001CF0FF0F4FEA400CE6D018BFBCF17F4FBC
:104D500038BF7047EAE79CEA026F05D010EA5C0FA3
:104D600008BF00F00040704710B500F0CCF800BF5D
:104D700064FBBE3E41000B0ED3F19E0208D950F4F5
:104D800000034FEA032323FA02F048BF4042704772
:104D900010B500F0B8F800BF499224800020704799
:104DA0006FF0004282EA20007047000010F00041DE
:104DB00048BF4042B0FA80F310FA03F2C3F19D03FA
:104DC0000BD051EAC35101EB1220530638BF704794
:104DD00000F1010008BF20F001007047B0FA80F335
:104DE00010FA03F2C3F19D030AD0D90501EB12209A
:104DF000530638BF704700F1010008BF20F00100E2
:104E0000704700004FF47F0C1CEAD0121EBF1CEA52
:104E1000D11392EA0C0F93EA0C0F00F0478090EA4E
:104E2000010F48BF42F480724FF0004C4CEA002062
:104E30004CEA012102EB0302A0FB0113A2F50002E0
:104E4000002918BF43F001035B0028BF4FEA33037A
:104E500042EB22425FEA132C4CEBC2502EBFBCEB5C
:104E6000436FB2F57C0F70474FEA036CBCF1004F03
:104E700008BF20F00100B2F57C0F38BF70470BD59A
:104E800082F0FF0212F5803FC8BF704700F1C040BA
:104E9000D8BF00F00040704700F5000C5FEA4C0CF2
:104EA00048BF7047B0F1C04000F073B890EA010FFE
:104EB0000CEAD11348BF42F48072624538BF6345A3
:104EC00004D280EA010000F00040704710B500F005
:104ED0001AF800BF8900013E00F007B800F009B8D9
:104EE0005FEA410C5FEA1C6C08D080EA010000F028
:104EF00050B85FEA400C5FEA1C6CF6D14FF00040FE
:104F0000A0F5800070470EF1020E2EF0030E5EF841
:104F1000044B244204D44FEA4102B2F17F4F11D82E
:104F20004FEA4003B3F17F4F0CD80ED14FEAD07C4B
:104F3000B2F17F4F0CEB4C0C0CF1020C08BF4CEBA8
:104F4000D17C04E04FF0080C01E04FEAD17C0CEB7F
:104F50004C0324FA03F404F00704B4F1040C06D261
:104F60000EEB840CBDE810404CF0010C6047DFE80C
:104F70000CF0070802024FF00040A0F5800010BDC1
:104F80000846420018BFD2F1807288BF00F000408E
:104F900010BDFF2141EAD050C005704790EA010FD3
:104FA00048BF81F000413FF58AAE421A04D882F032
:104FB0000042A0EB020011444FEAD0524FF07F4C68
:104FC0001CEA410FA2EBD15318BF9CEA026F4AD0F2
:104FD0004FF0004C4CEA00204CEA012121FA03FC7E
:104FE000B0EB0C0C0FD412F0FE0F36D05FEA4C0081
:104FF0001DD5001240EBC25038BF70471CF03F0F68
:1050000018BF70470BE0A2F101025FEA1C2040EBE1
:10501000C25038BF70471CF07F0F18BF7047C3F1F4
:105020002003994014BF401E20F001007047800803
:105030004FEA122308BF7047B0FA80FCA2EB0C02C3
:10504000CCF1280C60FA0CF093EA122F04BF00EBAD
:10505000C25070474FEAC3707047130A5FEADC1012
:1050600008BF7047F6E79CEA026F04D010EA5C0FB5
:1050700008BF0020704710B5FFF745FF40DFF63E40
:1050800081F000407047FBF7E8BB0CF00F03092BE1
:1050900008BF082000F059800A2B0BD0082B18BF3E
:1050A000704708BF1CF0400F0AD04FF000004FF0CF
:1050B000000170471CF0400F18BF4FF000407047D0
:1050C0001CF0100F08D020F0704300F07F4242EA3D
:1050D000D3014FEA4370704700F0604021F07F42F7
:1050E00042EA000201F07F4040EA727070474FF0E0
:1050F000FF0C4CF4E06C1CEA11531CBF9CEA030C3F
:105100009445C2BFDA4201EB02517047002B0DD02B
:10511000BCF1000F0FD0002A01F00041A4BF41F004
:10512000E04141F07F614FF00000704701F0004125
:105130004FF00000704750EA01334FF09B0C18BF4E
:105140004CF0806C7FF44EA970471CF4801F11D086
:105150001CF4E02F03D06FEACC31490070474FF0C8
:105160004050EFF3008222F0704242EA000282F3E4
:10517000008870474FF000007047000000000000FA
:1051800000000102030406070809000000000102F4
:105190000304344310100134431010013031323312
:1051A000343536373839414243444546403058005B
:1051B000303132333435363738396162636465668D
:1051C00040307800000000004FBB610567ACDD3F58
:1051D000182D4454FB21E93F9BF681D20B73EF3F1E
:1051E000182D4454FB21F93FE2652F227F2B7A3C96
:1051F000075C143326A6813CBDCBF07A8807703C4F
:10520000075C143326A6913CC4EB98999999C9BFC1
:10521000711623FEC671BCBF6D9A74AFF2B0B3BFF6
:105220009AFDDE522DDEADBF2F6C6A2C44B4A2BFB6
:105230000D5555555555D53FFF8300922449C23F22
:105240006E204CC5CD45B73F513DD0A0660DB13F56
:10525000EB0D76244B7BA93F11DA22E33AAD903F68
:1052600002400000000000A0000000000540000017
:10527000000000C8000000000C4000000000409C3E
:1052800000000000194000000020BCBE000000002B
:1052900034400000BFC91B8E00000004B540000070
:1052A000504BCFD06607E2CF010000006C410000F8
:1052B0003E8251AADFEEA73401000000D94200006F
:1052C000DCB5A0E23A301F97FFFFFFFFB4450000B6
:1052D000FD25A0C8E9A3C14FFFFFFFFFFF3F00006E
:1052E0000000008000000000FF3F00000000008080
:1052F00000000000305300080000002014000000EF
:10530000280100084453000814000020E4070000AE
:10531000440100081C00000043000000F8FFFFFFEC
:105320000C0000000E0000000F0000002E00000026
:10533000000000000100000010000000000000005C
:045340000024F40051
:04000005080000ED02
:00000001FF
